:020000040800F2
:10000000C05100205D0200089F2B00082D2700082A
:100010009D2B000869070008253200080000000039
:100020000000000000000000000000009D0100082A
:10003000ED0A000800000000F9010008A92C0008E2
:1000400077020008770200087702000877020008AC
:10005000770200087702000877020008770200089C
:10006000770200087702000877020008770200088C
:10007000310A0008770200087702000877020008BA
:10008000770200087702000877020008770200086C
:100090006D07000877020008770200087702000861
:1000A000770200087702000877020008770200084C
:1000B000770200087702000877020008770200083C
:1000C000770200087702000877020008770200082C
:1000D00077020008FD31000877020008113200089D
:1000E000770200087702000877020008770200080C
:1000F00077020008770200087702000877020008FC
:100100007702000877020008692D000877020008CE
:1001100077020008770200087702000877020008DB
:1001200077020008770200083D0A000877020008FD
:1001300077020008770200087702000877020008BB
:1001400079070008770200087702000877020008A4
:10015000770200087702000877020008770200089B
:10016000770200087702000877020008770200088B
:1001700077020008770200087702000800000000FC
:100180007702000877020008DFF80CD000F03EFA92
:100190000048004753360008C05100202C4B196816
:1001A0000868B0E8F04F80F30988BFF36F8F4FF015
:1001B000000080F3118870470000000008480068C4
:1001C000006880F308884FF0000080F3148862B65E
:1001D00061B6BFF34F8FBFF36F8F00DF00BF00BF6B
:1001E00008ED00E0DFF80C00016841F470010160E7
:1001F000704700BF88ED00E0EFF30980BFF36F8F19
:10020000134B1A681EF0100F08BF20ED108A20E96A
:10021000F04F106009B44FF0500080F31188BFF325
:100220004F8FBFF36F8F04F035F94FF0000080F36C
:10023000118809BC19680868B0E8F04F1EF0100F6B
:1002400008BFB0EC108A80F30988BFF36F8F704746
:1002500018000020EFF30580704700000648804733
:1002600006480047FEE7FEE7FEE7FEE7FEE7FEE79B
:10027000FEE7FEE7FEE7FEE7592D000889010008CA
:100280002DE9F05F0546002092469B4688460646CB
:10029000814640241BE0284641464746224600F05E
:1002A00011F953465A46C01A914110D311461846C7
:1002B000224600F0F8F82D1A67EB01084F46224657
:1002C0000120002100F0EFF817EB00094E41201E3D
:1002D000A4F10104DFDC484631462A464346BDE826
:1002E000F09F40EA01039B0703D009E008C9121FF1
:1002F00008C0042AFAD203E011F8013B00F8013BE0
:10030000521EF9D27047D2B201E000F8012B491E0B
:10031000FBD270470022F6E710B513460A460446A2
:100320001946FFF7F0FF204610BD2DE9FE4F81EA88
:10033000030404F0004421F0004100944FF0000B4E
:1003400023F0004350EA01045ED052EA03045BD07C
:10035000C3F30A54C1F30A552C44A4F2F3340194B4
:10036000A0FB0254C1F3130141F48011C3F3130342
:1003700043F4801301FB024400FB034E840A970AF6
:1003800044EA815447EA8357A4FB076802958D0A23
:1003900005FB07854FEA932C04FB0C542705029DAF
:1003A0004FEA065847EA1637B5EB08056EEB070C1F
:1003B000870E920E47EA811742EA8312A7FB0201D9
:1003C000B6EB0B0164EB00042B0D43EA0C335E1813
:1003D00044EB1C50DA465146E7FB0201C5F3130417
:1003E0004FEA0B3343EA14534FEA0432019C43EAC9
:1003F0000603A4F10C040294009CCDE900B400F0C3
:10040000B7F803B0BDE8F08F00200146F9E70EB55C
:10041000C10F80EAE0700844CA07002140F233436C
:100420008DE80E000A460B4600F0A2F803B000BDAE
:1004300070B5C1F30A5201F000450024C1F3130165
:1004400040F2FF3341F480119A4201DA002070BD7E
:1004500040F233439A42A2F2334203DC524200F0AC
:1004600031F800E090402C43F1D0404270BD01F0E3
:10047000004330B421F0004150EA010206D00A0DD9
:10048000A2F56072C1F31301002A02DC30BC002027
:100490007047440F44EAC104C100E01830BC00EBCF
:1004A000C25000F01FB8202A04DB203A00FA02F103
:1004B000002070479140C2F1200320FA03F3194352
:1004C00090407047202A04DB203A21FA02F00021F4
:1004D000704721FA02F3D040C2F120029140084354
:1004E000194670470029A8BF7047401C490008BF43
:1004F00020F00100704710B4B0FA80FC00FA0CF054
:1005000050EA010404BF10BC704749B1CCF120048B
:1005100021FA04F411FA0CF118BF01212143084318
:10052000A3EB0C01CB1D4FEA00614FEA102042BF44
:10053000002010BC704700EBC35010440029A4BF3A
:1005400010BC7047401C490008BF20F0010010BCDF
:10055000704710B5141E73F1000408DA401C41F115
:10056000000192185B411A4301D120F0010010BD37
:100570002DE9F04D92469B4611B1B1FA81F202E0AD
:10058000B0FA80F220329046FFF78DFF04460F4606
:1005900040EA0A0041EA0B0153465A46084313D089
:1005A000114653EA010019D0C8F140025046FFF746
:1005B00089FF05460E46504659464246FFF773FFEF
:1005C000084305D0012004E020463946BDE8F08DFF
:1005D0000020054346EAE0762C4337430A9863053A
:1005E000E40AA0EB08000022FD0A44EA47540A305E
:1005F00002D500200146E9E7010510196941DDE94E
:10060000084500196941BDE8F04DA2E7064C074DC9
:1006100006E0E06840F0010394E8070098471034D2
:10062000AC42F6D3FFF7B4FDF052000810530008B7
:1006300070B58C1810F8015B15F0070301D110F8A4
:10064000013B2A1106D110F8012B03E010F8016BD1
:1006500001F8016B5B1EF9D12B0705D40023521E54
:100660000DD401F8013BFAE710F8013BCB1A921CBC
:1006700003E013F8015B01F8015B521EF9D5A142BA
:10068000D8D3002070BD0000B0F90810184A00EE61
:10069000101A184BD2ED020AB8EEC00A30EE600A0A
:1006A000DFED150A10EE101A80ED030A994202DD03
:1006B00030EE600A06E010EE101A104B994203D992
:1006C00030EE200A80ED030A92ED050AD0ED010A12
:1006D00090ED001A20EE200AD0ED030A00EEC10AC8
:1006E000BDEEC00A10EE101A09B20182084670472A
:1006F0008C4D0020000034430000B443000034C39C
:10070000B0F90820511A00EE101A1649B8EEC00AC6
:1007100080ED030AB1F9022000EE902AF8EEE00A1B
:1007200070EE600AFDEEE00A10EE902A12B20A8026
:10073000D0ED000AD0ED011A20EEC01A00EE902A8A
:10074000BDEEC00AF8EEE00A01EEE01AFDEEC10AC5
:1007500010EE902A12B2028210EE100A4880104663
:1007600070470000FC000020FEE70000014800F098
:1007700032BB000080010020014800F02CBB0000CB
:10078000A801002000B58BB000200121CDE90601B1
:100790008A03CDE900200290039004900E20CDE959
:1007A000081005906946024800F01AFA0BB000BD27
:1007B000A801002000B58BB0002001218A03CDE9FB
:1007C0000601CDE900204FF4FC42CDE9022004905F
:1007D00005900E20CDE908106946024800F000FAA5
:1007E0000BB000BD8001002010B5FFF7E3FFFFF75D
:1007F000C9FF084800F068FD074800F065FD0221C8
:10080000044800F076F9BDE810400221024800F0EB
:1008100070B9000080010020A801002010B5184A1E
:1008200040F2FF1308241360002353609360C2E971
:1008300003341375C0F30723124AA1F50071C0B247
:10084000053906D0012907D0022908D003290BD188
:1008500008E01370507007E09370D07004E01371DB
:10086000507101E09371D071064B064A143B044964
:10087000054800F050F9002800D0012010BD00000C
:10088000C44C0020C4000020A8010020F0B40F4C8C
:100890004FF400750826256000256560A560C4E951
:1008A000035625750A4C050A25706070080AA07069
:1008B000E170100A20716271180AA071E371231FA0
:1008C000F0BC1A1D0149034800F025B9904C0020E6
:1008D000B4000020800100202DE9F047504C514920
:1008E0002DED028B2088C0F30A00088081466078D5
:1008F000A278C00840EA4210C0F30A00488080464F
:100900009009E27840EA8200227940EA8220C0F32E
:100910000A0088806779520842EAC712C2F30A06C1
:10092000CE80A0F58060FFF772FD9FED3F8B53EC0A
:10093000182BFFF7FAFCFFF77BFD04F12405288054
:10094000A6F58060FFF763FD53EC182BFFF7EDFC75
:10095000FFF76EFD6880A9F58060FFF758FD53EC46
:10096000182BFFF7E2FCFFF763FDA8804FEA484031
:10097000A0F100600014E880B8092872C7F30110E4
:100980006872E18904F1380001F0010201804280BF
:10099000C1F340028280C1F38002C280C1F3C00271
:1009A0000281C1F300124281C1F340128281C1F37E
:1009B0008012C281C1F3C0120282C1F300224282BE
:1009C000C1F340228282C1F38022C282C1F3C022DD
:1009D0000283C1F300324283C1F340328283C1F308
:1009E0008032C283C90B01840A35E08828802089BF
:1009F00068806089A880207BA871607BE871208A6C
:100A0000C0F58060FFF703FD53EC182BFFF78DFC5A
:100A1000FFF70EFD2881BDEC028BBDE8F0870000DA
:100A2000344C0020A800002000000000000004401A
:100A3000014800F0D7BC0000B8020020014800F0D7
:100A4000D1BC00005802002001681823CAB2103A35
:100A5000B2FBF3F2054B6FF30901032A9B5CC365FC
:100A600000D9091D8165084670470000C85200087A
:100A700010B5014600208B698A6A4FF0C07453B1EB
:100A8000B3F5005F15D072B1012A0CD0022A0AD04A
:100A9000032A09D104E01AB1012A06D0022A03D19F
:100AA000C96AC90100D5012010BDC96AA142FAD0A6
:100AB00010BD002AF7D0012AF2D0022AF3D0032A6F
:100AC000F3D010BD30B50468256825F48025256075
:100AD000046863608368402B036803D099600068F2
:100AE000C26030BD9A600068C16030BD704772B6A8
:100AF000FEE790F82020012A07D0022A05D0416A9B
:100B000041F48021416201207047006842690A4334
:100B1000426100207047F0B590F820500468A46846
:100B2000012D05D0022D03D0416A41F4802153E00C
:100B300014F0406F01D1E5004BD5C4F30164022CE1
:100B400003D9416A41F4000146E00125A5401D603A
:100B50008D684FF4C0739DB1CE6835434E6845EA49
:100B6000C605066803EB0417F5514FF4C275076814
:100B700005EB04150E697E51097D012905D009E0B8
:100B80000E88CD6845EA4655EBE701684E5946F4B4
:100B900080764E511179D2F805504FF4C67641EA6D
:100BA0000525016806EB04168D511178D2F8012055
:100BB0004FF4C47541EA0221026805EB0415515156
:100BC000006803EB0411425842F001024250002039
:100BD000F0BD416A41F4001141620120F0BD000006
:100BE00010B590F82020012A07D0022A05D0416ACA
:100BF00041F480214162012010BD3B48D0F8002221
:100C000042F00102C0F80022D0F8002222F47C5207
:100C1000C0F80022D0F800224B6A42EA0322C0F852
:100C200000220A7D02F01F0301229A40D0F81C32F4
:100C30009343C0F81C32CB69B3B9D0F80C3293435C
:100C4000C0F80C328C894B6864F31F434C6900EB8D
:100C5000C404C4F840320C890B6864F31F434C6928
:100C600000EBC404C4F84432CB69012B16D1D0F890
:100C70000C321343C0F80C320C884B6864F31F43EA
:100C80004C6900EBC404C4F840320C89CB6864F3AF
:100C90001F434C6900EBC404C4F844328B69002B39
:100CA000D0F804320ED01343C0F804320B69002B85
:100CB000D0F8143208D01343C0F81432096A01295D
:100CC00004D008E09343EFE79343F5E7D0F81C1214
:100CD0001143C0F81C12D0F8001221F00101C0F835
:100CE0000012002010BD000000640040704730B5C5
:100CF00090F82040012C05D0022C03D0416A41F429
:100D000080215DE00468002955D02469A40754D0EF
:100D10004FF4D874056804EB01142D5915F004053F
:100D2000956005682D594ED0ED08556005682C5921
:100D300004F00204D4604FF4DA74056804EB011483
:100D40002D5905F00F05156105682D59C5F30725C7
:100D5000956105682C59240C54614FF4DC720468C9
:100D600002EB0112A4581C700468A458240A5C7099
:100D70000468A458240C9C700468A258120EDA70FF
:100D80004FF4DE72046802EB0112A4581C7104686F
:100D9000A458240A5C710468A458240C9C7104684B
:100DA000A258120EDA71006881B1016941F0200188
:100DB0000161002030BDE468A8E7416A41F40011F8
:100DC0004162012030BD6D0D1560AFE7C16841F093
:100DD0002001C160EDE72DE9F05F054600680024C1
:100DE0004669D0F804908768D0F80CB0D0F810A00D
:100DF000D0F81880F10748D0F90714D0012181609C
:100E0000B80703D5284600F08CFA0CE0780702D525
:100E10004FF4006407E0380702D54FF4805402E035
:100E2000284600F07DFAF80516D529684FF4807041
:100E30008860B80503D5284600F075FA0CE07805FF
:100E400002D544F4005407E0380502D544F4804448
:100E500002E0284600F066FAF80316D529684FF438
:100E600080308860B80303D5284600F05EFA0CE0B5
:100E7000780302D544F4004407E0380302D544F473
:100E8000803402E0284600F04FFA300707D55FEAC9
:100E9000CB6004D52968102044F40074C860700742
:100EA0004FF0080707D55FEA0B7004D52868C760C4
:100EB000284600F099F9B00706D52868C068800771
:100EC00002D0284600F092F9700607D55FEACA60A2
:100ED00004D52968102044F480640861B00607D561
:100EE0005FEA0A7004D528680761284600F0E8F92F
:100EF000F00606D528680069800702D0284600F071
:100F0000E0F9B00308D55FEAC96005D5296810206B
:100F10004860284600F0D6F9F00307D55FEA09706B
:100F200004D528684760284600F000FA300446D50A
:100F30005FEA497040D5F00504D55FEAC87001D07A
:100F400044F00104B00504D55FEA887001D544F08F
:100F50000204700504D55FEA487001D544F004042A
:100F6000300529D518F0700F26D008F07000402801
:100F700015D006DC102809D020280AD0302816D138
:100F80000AE050280ED0602811D10EE044F0080489
:100F90000DE044F010040AE044F0200407E044F0BF
:100FA000400404E044F0800401E044F480742868C4
:100FB000816921F070018161296804204860002C5A
:100FC00005D0686A204368622846FFF78FFEBDE8B7
:100FD000F09F70B5040003D094F8200010B104E035
:100FE000012070BD204600F081F82068016841F0C2
:100FF0000101016000F066FC0546052604E000F0F2
:1010000061FC401B0A2811D820684068C007F6D050
:101010002068016821F00201016000F053FC0546E0
:101020000BE000F04FFC401B0A2806D9606A40F430
:101030000030606284F82060D2E720684068800752
:10104000EFD4207E0128206801683DD021F0800186
:101050000160607E01282068016838D021F04001DD
:101060000160A07E01282068016833D021F02001B2
:101070000160E07E0128206801682ED041F0100157
:101080000160207F01282068016829D021F0080133
:101090000160607F01282068016824D021F00401EC
:1010A0000160D4E902010843D4E904121143084362
:1010B0006168491E08432168C86100206062012000
:1010C00084F82000002070BD41F08001C0E741F0AD
:1010D0004001C5E741F02001CAE721F01001CFE748
:1010E00041F00801D4E741F00401D9E7F0B587B039
:1010F000044614216846FFF70DF9364B3648DFF8F1
:10110000D0E01968D4F800C0334A03250226092725
:1011100010300024491CF44522D11960012907D15F
:10112000016841F000710160006800F000700590F6
:10113000106840F0080010601068CDE9005600F01B
:101140000800CDE9047069462448CDE9024500F065
:10115000BBFA00220521142000F052FC142032E0DA
:10116000DFF87CE0F44530D1D0F800C04CF0806C62
:10117000C0F800C0D0F800C001290CF0806CCDF898
:1011800014C0196007D1016841F000710160006866
:1011900000F000700590106840F0020010601068C8
:1011A00002AB00F0020005906020CDE9000683E864
:1011B000B00069460B4800F087FA00220521402064
:1011C00000F01EFC402000F00DFC07B0F0BD000058
:1011D000006400400400002030380240000C02404F
:1011E00000680040000402407047000070B5304DB8
:1011F0000446A84227D12F4B2F4A00212846FFF74B
:1012000076FD2D482B490068A0F50070013806D006
:10121000012809D0022829D003280AD12BE04888C8
:10122000244940BA183103E04888224940BA2031A5
:10123000488002211E48FFF75CFC20B12868416904
:1012400041F0020141611D4DAC422FD1194B1A4AA8
:101250001033343200212846FFF749FD1648343058
:101260000068A0F50070053815D109E048881149DB
:1012700040BA2831DCE748880E4940BA3031D7E718
:101280000C48103001884ABA00F128010A804088D1
:1012900040BA4042488002210848FFF72AFC002853
:1012A00004D02868416941F00201416170BD00002D
:1012B00080010020BC000020A84C0020A8010020D4
:1012C000704770477047000070B5044690F82000E2
:1012D000012804D0606A40F40020606218E0022017
:1012E00084F820002068016821F00101016000F00D
:1012F000E9FA05460EE000BF00F0E4FA401B0A28B8
:1013000008D9606A40F400306062052084F820004B
:10131000012070BD20684068C007EDD1606270BDDB
:1013200070477047704770477047704770472DE9A6
:10133000F0410446876D00F0C5FA064694F8350082
:101340000025022806D08020606584F834500120F2
:10135000BDE8F0812068016821F016010160206875
:10136000416921F080014161206C08B9A06C20B175
:101370002068016821F0080101602068016821F0FF
:10138000010101600CE000F09DFA801B052807D9DF
:1013900020206065032084F8350084F83450D7E7B6
:1013A00020680068C007EED194F85C103F208840A8
:1013B000B860012084F8350084F834500020C7E775
:1013C00090F83510022903D0802141650120704733
:1013D000052180F835100068016821F001010160E5
:1013E000002070472DE9F84304464FF00009CDF87E
:1013F000009063484FF41651A56D0068B0FBF1F7FB
:101400002E6894F85C10082000FA01F131420FD0E8
:1014100021680A6852070BD50A6822F004020A60A4
:1014200094F85C108840A860606D40F00100606531
:1014300094F85C104FF0010808FA01F0304208D02F
:1014400021684969090604D5A860606D40F0020072
:10145000606594F85C1004208840304208D0216810
:101460000968890704D5A860606D40F004006065D4
:1014700094F85C1010208840304218D02168096828
:10148000090714D5A86020680168490304D50068DD
:10149000000308D5A16C07E00168C90503D4016801
:1014A00021F008010160216C09B12046884794F8B9
:1014B0005C1020208840304231D021680968C9067C
:1014C0002DD5A86094F8350005282068016806D05D
:1014D000490347D5006800031DD4616C1CE021F06E
:1014E000160101602068416921F080014161206C92
:1014F00008B9A06C20B12068016821F008010160E2
:1015000094F85C103F208840A86084F8358084F807
:101510003490216D1FE0E16B09B120468847606D72
:1015200000282BD0606DC00714D0052084F835004A
:101530002068016821F0010101600098401C0090C2
:10154000B84203D820680068C007F6D184F8358017
:1015500084F83490E16C002910D001B02046BDE839
:10156000F04308470168C905D5D4016821F010018E
:10157000016084F8358084F83490CCE7BDE8F883C6
:10158000140000202DE9F041044600F09BF90646C6
:101590005CB1022084F83500002584F834502068BE
:1015A000016821F0010101600DE00120BDE8F0813A
:1015B00000F088F9801B052805D9202060650320EC
:1015C00084F83500F2E720680068C007F0D122688F
:1015D000116820480140D4E901031843D4E90336D7
:1015E0003343184363691843A3691843E3691843F5
:1015F000236A18430843616A042903D1D4E90B1311
:1016000019430843106020684069666A20F00701AA
:1016100030460E43012704280CD1A06A0643E06A35
:1016200040B12046FFF724FA20B14020606584F8DD
:101630003570BAE7206846612046FFF705FA94F84E
:101640005C203F2191408160656584F83570002001
:10165000ACE700003F8010F02DE9F0410446866DB4
:1016600090F83400002501280DD0012084F83400C2
:1016700094F835700020012F07D084F8340002253B
:101680002846BDE8F0810220FBE7022784F8357088
:1016900060652046FFF716FA94F85C103F208840FA
:1016A000B0602068016841F016010160206C20B133
:1016B0002068016841F0080101602068016841F07C
:1016C00001010160DCE700002DE9F84FDFF8BCA163
:1016D0000022012503264FF00F090AF1040BAAF19D
:1016E000040E00BF0B6805FA02F42340A34270D138
:1016F0000F7907F00307012F01D0022F16D1876859
:101700004FEA420806FA08FC27EA0C07D1F80CC099
:101710000CFA08FC4CEA070CC0F808C04768A7435D
:101720000C79C4F3001494403C4344600C79E443C6
:10173000A4070AD0C4684FEA420C06FA0CF7BC436F
:101740008F6807FA0CF72743C7600C7904F003048D
:10175000022C12D1D40800EB840CDCF8204057078F
:10176000FF0E09FA07F824EA0804D1F8108008FAF5
:1017700007F848EA0408CCF8208004684FEA420CD5
:1017800006FA0CF7BC430F7907F0030707FA0CF7CA
:10179000274307604C6814F4403F70D03C4C2768E6
:1017A00047F480472760246822F0030704F480444C
:1017B0000094384C07EB040CDCF8084897074FEA14
:1017C000177809FA08F7BC43334FB84202D1002713
:1017D00024E054E0314FB84201D101271EE0304FE0
:1017E000B84201D1022719E02E4FB84201D1032798
:1017F00014E02D4FB84201D104270FE02B4FB8421F
:1018000001D105270AE02A4FB84201D1062705E099
:10181000284FB84201D1072700E0082707FA08F748
:101820002743CCF80878DAF800405746D1F804C0CE
:101830009C435FEACC2C00D51C433C60DBF80040A5
:101840005F46D1F804C09C435FEA8C2C00D51C4352
:101850003C60DEF800407746D1F804C09C435FEA64
:101860008C3C00D51C433C60084F083F3C68D1F8D5
:1018700004C09C435FEACC3C00D51C433C60521C36
:10188000102AFFF42FAFBDE8F88F0000083C01409C
:101890004438024000300140000002400004024091
:1018A00000080240000C02400010024000140240F8
:1018B00000180240001C02400AB18161704709040F
:1018C000FBE7000001488068704700000800002026
:1018D0000248816802781144816070470800002046
:1018E0000B4810B5016841F400710160016841F4D2
:1018F00080610160016841F480710160032000F0A3
:101900009FF80F2000F006F800F050F8002010BDFE
:10191000003C024030B505461F4887B000240168EE
:1019200041F008010160006806A900F0080000907D
:1019300001A800F031F90498A8B100F04DF9400079
:101940001649174AB0FBF1F11648491E026040F2F1
:10195000E732C0E90324C0E90114846100F046FBCA
:10196000040003D015E000F037F9E9E70D4800F076
:101970006BFB04000DD1322000F034F8102D07D29B
:1019800000222946322000F03BF80748056000E0BD
:10199000012407B0204630BD4038024040420F00CD
:1019A000000C0040180300200C0000200C4882B0FE
:1019B000016841F480410160006800F480400090BB
:1019C0000748001F016841F0805101600068002253
:1019D00000F0805000900F21901E02B000F010B86F
:1019E00044380240002809DB00F01F020121914029
:1019F0004009800000F1E020C0F8001170470000AD
:101A0000F0B40E4B1B680C46C3F30223C3F1070569
:101A1000042D00D90425191D072901D2002300E057
:101A2000DB1E012606FA05F1491E214099409E4021
:101A3000761E16403143F0BC01F014BC0CED00E002
:101A4000064900F0070208684FF6FF03184040EA15
:101A50000220034A10430860704700000CED00E0CC
:101A60000000FA052DE9F0470E46050065D0DFF8C5
:101A70001481D8F80000F7B200F00700B04207D296
:101A800088F80070D8F8000000F00700B04254D188
:101A900028683D4C810712D5400703D5206840F4E3
:101AA000E05020602878000703D5206840F46040AB
:101AB00020602068A96820F0F000084320602878A2
:101AC000C0072DD0304968680839012812D0022893
:101AD00013D0032811D00968890700292DDA21685D
:101AE00021F0030101432160FFF7ECFE814641F242
:101AF000883A0EE009688903EFE709688901ECE795
:101B0000FFF7E0FEA0EB0901514502D90320BDE833
:101B1000F0872068696800F00C00B0EB810FEFD10E
:101B2000D8F80010404601F00701B14207D907700C
:101B3000006800F00700B04201D00120E7E72878F4
:101B4000400705D52068E96820F4E050084320608C
:101B50002878000706D52068296920F4604040EA0B
:101B6000C100206000F058F82168084AC1F3031151
:101B7000515CC8400649086006480068FFF7CAFE85
:101B80000020C4E7003C024008380240D052000860
:101B9000140000200C0000200F2202600C4A136881
:101BA00003F003034360136803F0F00383601368DA
:101BB00003F4E053C36012684FF4E05303EAD20227
:101BC00002610448006800F00700086070470000E8
:101BD00008380240003C0240044805490068096892
:101BE000044AC1F38221515CC840704714000020B0
:101BF00008380240E05200080448054900680968B6
:101C0000044AC1F34231515CC840704714000020BF
:101C100008380240E0520008154810B5006810F07E
:101C20000C02144813D01449042A0FD0082A0ED1EC
:101C30000F4C241F2268236802F03F025B0207D585
:101C40002068C0F38810A0FB010106E0084610BD23
:101C50002168C1F38811A1FB00010023FEF710FBEE
:101C60002168C1F30141491C4900B0FBF1F010BDEE
:101C7000083802400024F400001BB7002DE9F84F9B
:101C800004006ED02078DFF84C93C007A9F104055A
:101C90004AD009F104000168C1F38101012908D08B
:101CA0000068C0F3810002280AD1D9F80000400280
:101CB00006D52868800337D560680028E1D033E076
:101CC0006068B0F5803F10D0B0F5A02F286810D024
:101CD00020F480302860286820F480202860606824
:101CE000A8B1FFF7EFFD06460DE0286840F480300C
:101CF000F4E740F480202860F7E700BFFFF7E2FD3B
:101D0000801B642873D828688003F7D50CE0FFF7A0
:101D1000D9FD064605E000BFFFF7D4FD801B64280F
:101D2000F0D828688003F7D42078DFF8AC828007E9
:101D30004FF0000A3ED5A748001D016811F00C0FB6
:101D400008D00068C0F3810002280BD1D9F8000048
:101D5000400207D42868800716D5E068012800D122
:101D600012E033E1E068B8B10120C8F80000FFF7E5
:101D7000A9FD064605E000BFFFF7A4FD801B022871
:101D8000C0D828688007F7D52868216920F0F800B6
:101D900040EAC10028600DE0C8F800A0FFF792FDFE
:101DA000064604E0FFF78EFD801B02281FD8286836
:101DB0008007F7D42078000722D5864F87486169CD
:101DC000703771B101210160FFF77CFD064604E028
:101DD000FFF778FD801B022809D838688007F7D5FF
:101DE0000EE0C0F800A0FFF76DFD064605E082E0BA
:101DF000FFF768FD801B02287DD838688007F7D47C
:101E00002078400768D5DFF8CCB100270BF13C0BF8
:101E1000DBF80000C0000BD4DBF8001041F080516B
:101E2000CBF80010DBF80000012700F08050009094
:101E30006B4E3068C00510D4306840F4807030605C
:101E4000FFF740FD009005E0FFF73CFD0099401AC8
:101E5000022850D83068C005F6D55E4EA0686C36B2
:101E600001280FD00528306810D020F00100306024
:101E7000306820F004003060A068B8B1FFF722FDA0
:101E800000900FE0306840F00100F4E740F00400FB
:101E90003060F7E7FFF716FD0099411A41F28830EC
:101EA000814266D830688007F4D50EE0FFF70AFD5E
:101EB000009007E0FFF706FD0099411A41F28830D3
:101EC000814256D830688007F4D42FB1DBF8001077
:101ED00021F08051CBF80010A069C8B33D49091D1D
:101EE0000968C1F3810102294AD00228504607D06F
:101EF000C8F8600000E03CE0FFF7E4FC04463BE08B
:101F00004746C8F86000FFF7DDFC064605E000BF65
:101F1000FFF7D8FC801B02282BD828688001F7D453
:101F2000D4E907010843A16A2E4A490802EB01419E
:101F3000626A41EA8211084394F82C1040EA016178
:101F4000C9F8001001203866FFF7BCFC044606E023
:101F50003EE000BFFFF7B6FC001B022809D8286846
:101F60008001F7D534E000BFFFF7ACFC001B02286E
:101F700002D90320BDE8F88F28688001F4D427E057
:101F80000128F7D0D9F80000E26900F480019142FD
:101F90001CD1226A00F03F01914217D147F6C0716F
:101FA000626A0140B1EB821F10D1A26A4FF0FF3389
:101FB00000F4403103EB5202B1EB024F06D194F82A
:101FC0002C1000F07060B0EB016F01D00120D1E760
:101FD0000020CFE70438024000004742800E47420D
:101FE000007000400000FFFF7047704710B504000C
:101FF00003D094F83D0010B107E0012010BD00208F
:1020000084F83C00204600F01EF8022084F83D00D1
:10201000211D206800F0AEFE012084F8460084F8FF
:102020003E0084F83F0084F8400084F8410084F8C2
:10203000420084F8430084F8440084F8450084F8A2
:102040003D00002010BD704790F83D10012901D0DF
:1020500001207047022180F83D100168CA6842F0F3
:102060000102CA6000681149884214D0B0F1804F63
:1020700011D00F4988420ED00E4988420BD00E492C
:10208000884208D00D49884205D00D49884202D0C7
:102090000C49884204D1816801F00701062903D068
:1020A000016841F00101016000207047000001401B
:1020B0000004004000080040000C00400004014003
:1020C0000040014000180040704770B504460068A9
:1020D00001694FF00005C943890715D4C168C94398
:1020E000890711D4E91E01610120207720688069E9
:1020F0008007204602D0FFF7E7FF04E000F098F8E1
:10210000204600F096F8257720680169C943490701
:1021100017D4C168C943490713D46FF004010161A2
:10212000022020772068806910F4407F204602D08A
:10213000FFF7CAFF04E000F07BF8204600F079F8D2
:10214000257720680169C943090716D4C168C943C6
:10215000090712D46FF0080101610420207720687C
:10216000C0698007204602D0FFF7AEFF04E000F010
:102170005FF8204600F05DF8257720680169C943C3
:10218000C90617D4C168C943C90613D46FF010013A
:102190000161082020772068C06910F4407F204644
:1021A00002D0FFF791FF04E000F042F8204600F073
:1021B00040F8257720680169C943C90708D1C1687B
:1021C000C943C90704D1891E0161204600F032F8D5
:1021D00020680169C943090609D4C168C9430906D1
:1021E00005D46FF0800101612046FFF7FDFE2068F5
:1021F0000169C943490609D4C168C943490605D4E0
:102200006FF040010161204600F01EF8206801696E
:10221000C94389060BD4C168C943890607D46FF046
:10222000200101612046BDE87040FFF7DEBE70BDB1
:102230007047704700680349884201D1FFF748BBE7
:1022400070470000000C00407047704710B504460E
:102250000068406994F83D10C0F3C010212911D1E5
:1022600080B12068143050E8001F21F0800140E860
:102270000012002AF5D1606B08B1FFF758F820462C
:1022800000F07EFE2068406994F83E10C0F3801094
:10229000222911D180B12068143050E8001F21F0AC
:1022A000400140E80012002AF5D1A06B08B1FFF709
:1022B0003EF8204600F03DFE002010BD70470000B3
:1022C000F8B5016804460868CA684B6910F00F0F3A
:1022D0004FF000055AD003F0010602F4907737431F
:1022E00065D0C10705D0D10503D5216C41F00101AE
:1022F0002164410705D5D90703D0216C41F00201C3
:102300002164810705D5D90703D0216C41F0040170
:102310002164010707D502F02001314303D0216C6D
:1023200041F008012164216C00293BD0800604D5CE
:10233000900602D5204600F031FE20684069216CED
:10234000C0F3801001F00801014320462BD000F0BB
:10235000F0FD20684069400621D52068143050E81F
:10236000001F21F0400140E80012002AF5D1A06BC7
:10237000A8B16C490165A06BFFF722F8002811D0C5
:10238000A06B016D01B0BDE8F040084783060ED593
:1023900093060CD52046BDE8F84000F0FFBD20466E
:1023A000FFF78CFFF8BDFFF789FF2564F8BD266BAA
:1023B0002023012E79D1C60677D5D60675D50868B3
:1023C000486800904869400640D5A16B086840689D
:1023D0000004000CEAD0A28D8242E7D9E085C869EA
:1023E000B0F5807F2DD020680C3050E8001F21F41C
:1023F000807140E80012002AF5D12068143050E8BE
:10240000001F21F0010140E80012002AF5D12068E8
:10241000143050E8001F21F0400140E80012002A6B
:10242000F5D184F83E30256320680C3050E8001F59
:1024300021F0100140E80012002AF5D1A06BFEF750
:1024400076FFA08DE18D401A81B229E0A08DE18D4B
:10245000401A81B2E08D0028A8D00029A6D02068BB
:102460000C3050E8002F22F4907240E80026002E35
:10247000F5D12068143050E8002F22F0010240E826
:102480000026002EF5D184F83E30256320680C30FC
:1024900050E8002F22F0100240E80023002BF5D175
:1024A0002046FFF7D2FEF8BDFFE705062BD515063F
:1024B00029D594F83D002128F5D1A068B0F5805FBA
:1024C00001D12069B0B1206A411C216221680078E5
:1024D0004860E08C401E0004000CE084E3D12068DA
:1024E000C16821F08001C1602068C16841F04001ED
:1024F000C160D8E7206A0088C0F308004860206AFD
:10250000801C2062E5E74006CDD55006CBD5CA68D1
:10251000204622F04002CA6084F83D3000F005F900
:10252000C1E700003D2E000870B5040004D094F807
:102530003D00002510B106E0012070BD84F83C503C
:10254000204600F023F8242084F83D002068C1686C
:1025500021F40051C160204600F080FD206801692F
:1025600021F4904101612068416921F02A01416113
:102570002068C16841F40051C1602564202084F8BE
:102580003D0084F83E00002070BD00002DE9F04FB2
:1025900087B0064614216846FDF7BCFE4E4B3168F5
:1025A00000244E480225032207274FF000694FF40C
:1025B000806A4FF4807B99424BD1484914310B68B3
:1025C00043F010030B60096801F0100105910168E8
:1025D00041F002010160016801F00201059101680A
:1025E00041F0010101600068CDE9024200F0010004
:1025F00005908020CDE9000590466946049738484B
:10260000FFF762F82802CDE90005CDE902486946E6
:1026100004973448FFF758F8344D33482860C5E92B
:102620000194C5E9034A6C61C5E9064B4FF440309B
:10263000C5E908042846FEF7A5FF08B1FEF757FADA
:10264000B563002205212520AE63FFF7D9F92520C7
:102650003CE0274B99423BD1204910310B6843F4B1
:1026600080230B60096801F480210591016841F025
:10267000040101600068CDE9024200F00400059009
:102680004FF44060CDE90005694604971948FFF70B
:102690001BF8164D184860352860C5E90194C5E956
:1026A000034A6C61C5E9064B4FF40030C5E90804E4
:1026B0002846FEF767FF08B1FEF719FAB563002256
:1026C00005212720AE63FFF79BF92720FFF78AF942
:1026D00007B0BDE8F08F0000001001403038024024
:1026E0000004024000000240406402405802002002
:1026F00000480040000802402860024090F83E3048
:10270000202B0ED159B152B190F83C30012B08D09A
:10271000012380F83C300023036300F025BD012035
:10272000704702207047704770477047FEE700000F
:102730007CB52C48016808682B4EC043C2062B4C60
:102740004FF000004FF0805520D401900868486891
:1027500000902448FFF77AFD2548006840686060D3
:10276000C0F12400A060122803D10021E06802F02B
:1027700006F924221F491B48FFF7C0FF01982EE0ED
:102780003560BFF34F8FBFF36F8F7CBD1A490A6866
:102790001268D243D206F8D40090086801684068F5
:1027A00001901548FFF752FD14480068406880B258
:1027B0002080C0F1240080B26080212809D10D481A
:1027C0002430007A012804D10D486946006802F0DF
:1027D000D6F824220B490848FFF790FF00980028FC
:1027E000CED17CBD1402002004ED00E09800002052
:1027F000B8020020344C0020D001002058020020F4
:1028000000010020FB4C00202DE9F041DFF8D080D2
:10281000344E00252DED048B9FED338B05EB4500E9
:1028200000EBC5003044C178552950D101795229B7
:1028300002D053294BD125E050F8052FC8F80420C9
:10284000274F406800249FED2A9B3F1DC8F80800D1
:1028500037F91400FDF7DBFDB0EE481AF0EE681A08
:1028600053EC112BFDF761FD53EC192BFDF75DFDCA
:10287000FDF7FDFD06EB8401641CE4B20864032C43
:10288000E6D324E050F8052FC8F80C20144F406818
:1028900000249FED199B0C37C8F8100037F914007D
:1028A000FDF7B5FDB0EE481AF0EE681A53EC112BA7
:1028B000FDF73BFD53EC192BFDF737FDFDF7D7FD79
:1028C00006EB8401641CE4B28862032CE6D36D1C21
:1028D000EDB2042DA2D3BDEC048BBDE8F081000065
:1028E00000010020F84C0020000000000000003F24
:1028F0000000000000409F40000000000080664093
:102900000F4810B50D4901600621416000214FF4C8
:1029100000328160C0E90312120142610176012296
:1029200042768176C17602774177FEF752FB002826
:1029300003D0BDE81040FEF7DAB810BD00640040D7
:10294000800100200F4810B50D490160062141604B
:1029500000214FF400328160C0E90312120142618C
:102960000176012242768176C17602774177FEF7C1
:1029700030FB002803D0BDE81040FEF7B8B810BD0A
:1029800000680040A8010020114808B5016841F422
:1029900000110160016801F400110091016841F427
:1029A000800101600068002200F480000090052191
:1029B0000C20FFF725F80C20FFF714F80022052162
:1029C0003A20FFF71DF8BDE808403A20FFF70AB8A3
:1029D000303802407CB500F031F900F023F900F006
:1029E000F3FD00F021FC164A0021164800F078FEA5
:1029F00015490025182408602B464FF4807213A156
:102A00001448CDE9004502F09BF900234FF4007211
:102A100011A11548CDE9004502F092F9002380226A
:102A200012A11548CDE9004502F08AF90023802261
:102A300012A11648CDE9004502F082F97CBD0000E4
:102A4000A4520008792C00080000002052435F5473
:102A500061736B0079350008636861696573735F42
:102A60005461736B00000000A53200087961775F44
:102A70007461736B00000000D55100086A79393029
:102A8000315F726561645F5465737400E1350008FD
:102A900070B586B014216846FDF73CFC1E48002442
:102AA000016841F002010160016801F00201059135
:102AB000016841F001010160016801F00101059127
:102AC000016841F008010160016801F00801059109
:102AD000016841F004010160016801F00401059101
:102AE000016841F08001016000680C4E00F0800038
:102AF0004FF4E0550590002229463046FEF7DCFEF3
:102B000001200095CDE90104694630460394FEF7A3
:102B1000DBFD06B070BD000030380240001C0240F2
:102B20000C4810B50A4901604FF4E13141600021C1
:102B300081600C22C160C0E904128161C161FFF7AC
:102B4000F3FC002803D0BDE81040FDF7D0BF10BD56
:102B500000100140D00100200E4810B50C49016062
:102B60000D4941604FF48051816000214FF4806233
:102B7000C0E903120C22C0E90521C161FFF7D4FCB2
:102B8000002803D0BDE81040FDF7B1BF10BD000024
:102B90000048004014020020A0860100FEE7FEE786
:102BA00010B5511A09B20180B0F902208B1A01EE5A
:102BB000903AB0F904305442F8EEE11A0B4403EBBA
:102BC000440342F2107461EE801A00EE101AB8EE5F
:102BD000C00A40EE801A00EE103AB0F90630B8EEA6
:102BE000C00A41EE001A00EE103AB8EEC00A31EE0B
:102BF000800ABDEEC00A10EE103A1BB20381A34258
:102C000000DB0481B0F90840054B9C4200DC0381E5
:102C1000B0F90830C38082804180184610BD0000A2
:102C2000F0D8FFFF10B500220821142001F0FFFCAE
:102C30000149086010BD0000140100200B4808B5D0
:102C40000068016841680091C16841F01001C160ED
:102C5000242207490548FFF751FD032200210120E6
:102C600001F0E5FC0349C86008BD00001402002023
:102C7000344C0020980000200A4C4FF400664FF4BA
:102C8000FA75012231462046FEF716FE284601F06D
:102C900005FB002231462046FEF70EFE284601F0D5
:102CA000FDFAEEE7001C024010B54FF0E02000698D
:102CB00002F09EF8012803D0BDE8104001F096BC58
:102CC00010BD000030B593B030216846FDF722FBFF
:102CD00014210CA8FDF71EFB1D480025016841F0DA
:102CE00080510160006800F080501190194801681F
:102CF00041F4804101600068022400F4804011909A
:102D000001200090000401908001CDE906400620DA
:102D10000890A820CDE9090404200B906846FEF72E
:102D2000ADFF08B172B6FEE70CA90F2081E83100B3
:102D30004FF4A0500F904FF48050109005210CA834
:102D4000FEF790FE002801D072B6FEE713B030BD4A
:102D500040380240007000400248016841F47001B0
:102D60000160704788ED00E00148FFF7AEB9000050
:102D700018030020F0B50268254C264D264E274F3B
:102D8000274B4FF0804CA04209D0604507D0A842A5
:102D900005D0B04203D0B84201D0984204D122F00D
:102DA000700E4A6842EA0E02A0421BD0604519D05C
:102DB000A84217D0B04215D0B84213D0984211D0D3
:102DC000184DA8420ED0184DA8420BD0174DA8425E
:102DD00008D0174DA84205D0164DA84202D0164D76
:102DE000A84203D122F44075CA682A434D6922F0F3
:102DF00080022A4302608A68C2620A688262A04234
:102E000001D0984201D10969016301214161F0BDFE
:102E1000000001400004004000080040000C004099
:102E200000040140004001400044014000480140CE
:102E300000180040001C00400020004010B5806BCE
:102E40000021C185C184FFF739FA10BD70B5846BCC
:102E50002068406994F83D10C0F3C0100025212976
:102E600004D118B1E584204600F08AF82068406952
:102E700094F83E10C0F38010222904D118B1E585E2
:102E8000204600F056F8206C40F0100020642046E8
:102E9000FFF714FA70BD10B50146806B0968096828
:102EA000C9052FD40021C18501680C3151E8002FDC
:102EB00022F4807241E80023002BF5D1016814311F
:102EC00051E8002F22F0010241E80023002BF5D148
:102ED0000168143151E8002F22F0400241E800233C
:102EE000002BF5D1202180F83E10016B012909D17A
:102EF00001680C3151E8002F22F0100241E8002354
:102F0000002BF5D1016B012902D0FFF70CFC10BD9D
:102F1000818DFFF79AF910BD10B5806B016B012907
:102F200002D0FFF701FC10BD818D4908FFF78DF934
:102F300010BD01680C3151E8002F22F4907241E875
:102F40000023002BF5D10168143151E8002F22F045
:102F5000010241E80023002BF5D1016B012909D1C1
:102F600001680C3151E8002F22F0100241E80023E3
:102F7000002BF5D1202180F83E100021016370471D
:102F800001680C3151E8002F22F0C00241E8002313
:102F9000002BF5D1202180F83D10704708B590F83E
:102FA0003E10222901D0022008BD82684FF48053D0
:102FB0009A4201D1016921B1816A9A421BD04AB17A
:102FC0000AE00268816A5268C2F308020A80816AD4
:102FD000891C08E0026972B10268526802F07F023F
:102FE0000A70816A491C8162C18D491E0904090C5D
:102FF000C18503D019E002685268F1E70168CA6828
:1030000022F02002CA600168CA6822F48072CA6095
:1030100001684A6922F001024A61202180F83E10CD
:10302000016B012903D0FFF77EFB002008BD0021C2
:10303000016301680C3151E8002F22F0100241E8D1
:103040000023002BF5D101680A68D20602D50A6870
:1030500049680091818DFFF7F8F8E6E770B50446FE
:1030600000680169E26821F440511143016121695E
:10307000A068E26908436169114308432168CA688E
:1030800049F20C639A430243CA6020684169A2690D
:1030900021F440711143416131492068884202D0D6
:1030A0003049884202D1FEF7A7FD01E0FEF794FD0A
:1030B000E2690023192164253226B2F5004F6268C7
:1030C00028D0A0FB0101930F9200FDF7D9F801462B
:1030D000B0FBF5F06FF01802504301EB800006EBF7
:1030E0000010B0FBF5F000F0F002B1FBF5F002EBE0
:1030F0000012B1FBF5F06FF01803584301EB8000AC
:1031000006EB0010B0FBF5F000F00F002168104452
:10311000886070BDA0FB010192185B41FDF7B0F81B
:103120000146B0FBF5F00201B1FBF5F06FF01803BA
:10313000584301EB800006EBC000B0FBF5F000F057
:10314000F80002EB4002B1FBF5F0584301EB8000C0
:1031500006EBC000B0FBF5F000F00700D6E700007A
:10316000001001400014014038B5816282850025BD
:10317000134604460564222084F83E00A26B1C48D6
:10318000D063A26B1B481064A26B1B48D064A06B79
:103190000A4605652168A06B091DFEF75DFA2068E7
:1031A00001684068009084F83C50206948B120686C
:1031B0000C3050E8001F41F4807140E80012002AF2
:1031C000F5D12068143050E8001F41F0010140E8BB
:1031D0000012002AF5D12068143050E8001F41F099
:1031E000400140E80012002AF5D1002038BD00005F
:1031F000972E0008192F00084D2E000810B5FFF774
:1032000097FABDE810400148FFF75AB8D0010020F6
:1032100010B5FFF78DFABDE810400148FFF750B830
:1032200014020020FEE700000B4808B500680168A2
:1032300041680091C16841F01001C1602422074932
:103240000548FFF75BFA03220021012001F0EFF9A6
:103250000349086008BD0000D0010020FB4C00209D
:10326000000100200907090E002804DB00F1E0201E
:1032700080F80014704700F00F0000F1E02080F8A3
:10328000141D704702E008C8121F08C1002AFAD1B5
:1032900070477047002001E001C1121F002AFBD1D6
:1032A000704700002DED028B012001F0B5F9A14C13
:1032B000E06040F2651000F0F1FF9F4FDFF87C8284
:1032C00004F110059FED9E8ADFF87892DFF878A26E
:1032D000DFF878B2974900221031386801F09EFB80
:1032E0002878032804D0012864D002287DD01CE16E
:1032F000B5F90620B5F90410B5F9020000F02CF973
:10330000B4F9060000F0A4F9B4F9040000F0A0F943
:10331000B4F9020000F09CF9B4F9000000F098F94B
:103320004FF0FF31E06801F015FCB8F90210B0EE83
:10333000481AF1EE020AB1EE0C0AB4F900208448F2
:10334000FFF72EFC824EB0EE481A2836F1EE020A44
:103350007080B9F90210B1EE0C0AB4F90220A6F19E
:103360001E00FFF71DFCB080BAF90210B0EE481A3B
:10337000F1EE020AB1EE0C0AB4F90420A6F1140031
:10338000FFF70EFCF080BBF90210B0EE481AF1EE28
:10339000020AB1EE0C0AB4F90620A6F10A00FFF702
:1033A000FFFB3081B6F90620B6F904100346B6F9E2
:1033B0000260B1E06748B0F900105E481830FDF7D0
:1033C0009FF9404202B22281B8F90210B0EE481AC9
:1033D000F1EE020AB1EE0C0A5D48FFF7E1FB5C4E2C
:1033E00032367080B9F9021000E034E0B0EE481ACD
:1033F000F1EE020AB1EE0C0AB4F90820A6F1280099
:10340000FFF7CEFBB080BAF90210B0EE481AF1EE29
:10341000020AB1EE0C0AB4F90820A6F11E00FFF76B
:10342000BFFBF080BBF90210B0EE481AF1EE020AC1
:10343000B1EE0C0AB4F90820A6F11400FFF7B0FBB6
:1034400030810346B6F90620B6F90410B6F9020039
:10345000FDF71CFA69E0B5F90620B5F90410B5F9D5
:10346000020000F079F8B4F9060000F0F1F8B4F9C0
:10347000040000F0EDF8B4F9020000F0E9F8B4F946
:10348000000000F0E5F84FF0FF31E06801F062FB6A
:10349000B8F90210B0EE481AF1EE020AB1EE0C0AC9
:1034A000B4F900202A48FFF77BFB294EB0EE481AFA
:1034B0002836F1EE020A7080B9F90210B1EE0C0A5A
:1034C000B4F90220A6F11E00FFF76AFBB080BAF93A
:1034D0000210B0EE481AF1EE020AB1EE0C0AB4F98D
:1034E0000420A6F11400FFF75BFBF080BBF902108B
:1034F000B0EE481AF1EE020AB1EE0C0AB4F9062059
:10350000A6F10A00FFF74CFB3081B6F90620B6F9A8
:103510000410B6F9026003463046FDF7B7F9002300
:103520001A461946E06801F01BF9052000F0B6FEC6
:10353000D0E600002001002014010020D40000206B
:103540006666A63FDC000020E4000020EC000020BE
:10355000444D0020F400002030B50C18054BA51890
:10356000141B1D80451A15445D80081A9C80104468
:10357000D88030BD20010020124C104E104D4FF06D
:10358000FF38271F4146306801F0E4FA0128F9D1DD
:10359000FDF7A2F9287A2070687A60702888608028
:1035A0006888A080A888E08000231A46054938680A
:1035B00001F0D6F8142000F071FEE3E7A40000202B
:1035C000584C00201801002010B5002218210A20B4
:1035D00001F02DF80149086010BD00007C010020B9
:1035E000174E184D184C194F4FF0FF3841463068B0
:1035F00001F0B0FA0128F9D1FFF706F995ED0A0AB2
:10360000002384ED000A95ED0B0A1A4684ED010AA9
:1036100095ED0C0A0C4984ED020A95ED100A84ED33
:10362000030A95ED110A84ED040A95ED120A84ED62
:10363000050A386801F094F8142000F02FFED5E751
:1036400000010020F84C0020A44D00207C01002047
:103650007047FEF745F9FFF735FBFFF719FAFFF75B
:1036600093F9FFF779FAFFF74BF9FFF759FAFFF7EC
:1036700069F9FDF7B9F800F005F8FFF7ABF900F0CC
:1036800013F8FEE7EFF3058010B16FF00500704707
:103690000448016811B14FF0FF307047012101600B
:1036A000002070476800002010B5EFF3058010B1CE
:1036B0006FF0050010BD08480168012902D04FF0E5
:1036C000FF3010BD054A002182F8141D022101605F
:1036D00000F094FE002010BD680000200BE000E028
:1036E0002DE9FF410B464FF00005EFF305810395EF
:1036F00049BB40B38027182100244AB3166806B19D
:10370000344696691EB13146761E382E02D216799D
:10371000F60703D0002004B0BDE8F081566906B179
:10372000B708D2F808C0BCF1000F0DD0D5685C2DE9
:1037300018D312693AB136B18DE806103A462146DF
:1037400001F02BFB03900DE0D6685EB912694AB90F
:1037500003AACDE90012BAB2214601F0F1FA01281C
:1037600000D003950398D6E72DE9F041134C0F469E
:103770000546E6682068001D00F05CFC681C07D167
:1037800037B12168BDE8F0410D48091D00F0A2BC29
:1037900020683544B5424560216805D2A06BBDE87C
:1037A000F041091D00F07EBC606B091D00F07AFC41
:1037B000A06A854200D2A562BDE8F0811800002011
:1037C000500800202DE9F041054600F08FFC2D4CFB
:1037D000A068401CA06020682B4F10B1606930B316
:1037E0002BE02560A068012827D1002606EB860083
:1037F00007EB800000F048FC761C382EF6D32348F7
:1038000000F042FC2148143000F03EFC1F482830F4
:1038100000F03AFC1D483C3000F036FC1B485030AC
:1038200000F032FC194860631430A06305E02068A2
:10383000E96AC06A884200D82560606A401C6062FC
:103840006864E86A2169884200D9206100EB800041
:1038500007EB8000291D00F03DFC00F067FC60696B
:1038600000280CD02068E96AC06A884207D208495B
:103870004FF080500860BFF34F8FBFF36F8FBDE8EC
:10388000F081000018000020A003002000080020A4
:1038900004ED00E038B500F029FC104C2068C8B9F0
:1038A0000F4800F0F1FB0E48143000F0EDFB0C481F
:1038B000E060143020610A4B0020F03B009003F1DF
:1038C000500210210A2000F0D3FE206010B105A1A3
:1038D00000F0AEFCBDE8384000F028BC54000020E9
:1038E00054090020546D72510000000030B4026C85
:1038F0000B46002A0BD0C1681144C1608468A14204
:1039000001D30168C16030BC1846FCF7EABC30BC8A
:1039100070472DE9F041856B174604460026026C7E
:1039200082B1C7B1E068FCF7DCFCE168206C091AE1
:10393000E1602268914202D2A168081AE060022F79
:1039400016D017E02068A8B9A06801F0C9FA0646A9
:103950000020A0600EE06068FCF7C3FC216C60688A
:1039600008446060A168884204D32068606001E078
:1039700005B16D1E6D1CA5633046BDE8F08110B524
:10398000044690F8590058B101280CD002280FD0F5
:10399000502080F31188BFF34F8FBFF36F8FFEE786
:1039A000206B00F0D7FB2046BDE8104000F0D2BBF2
:1039B00010BD000010484FF47051420706D0C01DE2
:1039C0000D4920F00700411AC1F570510B4A002340
:1039D0000144C2E900030839183A21F007011160D7
:1039E0004B600B600B1AC0E9001393604FF000406E
:1039F00053605061704700003410002084000020A4
:103A0000144E154CA6F29C474FF08058DFF84C90AE
:103A100012E000BF00F06AFBF068C568281D00F0E6
:103A200009FBA068401EA0606068401E606000F056
:103A30007DFB2846FFF7A3FF60680028EAD13868BD
:103A40000128F9D9C9F80080BFF34F8FBFF36F8FFA
:103A5000F2E700003C0800201800002004ED00E020
:103A6000002807D00021816001600B460A46C16032
:103A700000F076BE7047000070B51D46049C51B141
:103A8000C4F80020C4E90F010121204600F024FE03
:103A900084F84C5070BD2460F4E700002DE9F05F1D
:103AA0008846DDE90B941546834691009A460A9EA6
:103AB000A522206BFCF727FC6FF00301206B01EBC4
:103AC0008501084420F00707780707D0502080F3CD
:103AD0001188BFF34F8FBFF36F8FFEE70025B8F15A
:103AE000000F0FD05FF00000221818F8001082F8C5
:103AF000341018F8001011B1401C1028F4D384F8C9
:103B0000435001E084F83450382E00D33726E66263
:103B1000C4E91365201D00F0C2FA04F1180000F09A
:103B2000BEFA2461C6F138006462A061656584F85C
:103B3000585052465946384600F066FA2060B9F1AE
:103B4000000F01D0C9F80040BDE8F09F30B5114921
:103B500000E011460A688242FBD34B685C1884423D
:103B600003D1406818444860084643681C189442D2
:103B700009D1084C183C2468A24209D052681A4462
:103B800042600A6812680260814200D0086030BD5D
:103B90000460F9E78400002070B5002441600B4DFB
:103BA0000061914206D8D11A8269914206D2011D64
:103BB000286907E09A4203D2994201D3012403E025
:103BC000011DE86800F06EFA204670BD5400002028
:103BD00010B5044600F08AFAA06B28B15FF000042B
:103BE00000F0A4FA204610BD0124F9E730B589B0F1
:103BF0003C4D6EE00498002806DADDE90601059ADE
:103C000090470498002864DB069C606910B1201D71
:103C100000F010FA03A800F0D7F8024604980A282A
:103C200057D2DFE800F00505052D334A05052D3391
:103C300094F8280040F0010084F828000599A06954
:103C4000059B01442046FFF7A7FF68B3216A204681
:103C5000884794F8280040073BD50020009005983D
:103C6000A169002342181946204601F07FFAD8B90D
:103C7000502080F31188BFF34F8FBFF36F8FFEE7A3
:103C800014F8280F20F00100207022E094F828009A
:103C900040F0010084F828000598A06128B181183F
:103CA00013462046FFF778FF13E0502080F3118879
:103CB000BFF34F8FBFF36F8FFEE794F828008107A3
:103CC00003D4204600F046FA03E020F0010084F817
:103CD0002800002204A9286800F0A0FE002889D14D
:103CE00009B030BD540000202DE9FC410F460546C7
:103CF00000F0C8FB01A800F067F80446019818B16D
:103D000001F0A2F9BDE8FC81254EAFB13069006831
:103D1000D0B30027291B3A46306800F09DFA01F025
:103D200093F90028EED11F494FF080500860BFF38F
:103D30004F8FBFF36F8FE5E7A542EBD801F084F911
:103D4000F0682746C068C468201D00F073F994F835
:103D50002800410719D5A0692B4641193A4620464B
:103D6000FFF71AFFA8B100200346014600902A463B
:103D7000204601F0FBF960B9502080F31188BFF3B1
:103D80004F8FBFF36F8FFEE707E020F0010084F84C
:103D90002800216A20468847B4E70127BAE70000D7
:103DA0005400002004ED00E00648416B096829B189
:103DB000416BC968C9684968816270474FF0FF313B
:103DC000FAE700001800002070B5054601F01EF863
:103DD000064E0446B068844203D200F009F8012080
:103DE00000E0002028602046B46070BD5400002030
:103DF000F8B5194D20E0C068C4680668201D00F0C1
:103E000019F9216A2046884794F82800400713D5FD
:103E1000A0693044B04206D924616060211DE86881
:103E200000F040F908E000200346014600903246C9
:103E3000204601F09BF938B1E86801680029DAD121
:103E40002969C5E90310F8BD502080F31188BFF33C
:103E50004F8FBFF36F8FFEE7540000200848406883
:103E6000401C4FF0500080F3118804D0BFF34F8FF7
:103E7000BFF36F8FFEE7BFF34F8FBFF36F8FFEE788
:103E80008C000020074CE068016841B1C068002147
:103E9000D0F80000FFF728FFFFF7A8FEF3E70121A5
:103EA0000020F7E7540000202DE9F041044600F01F
:103EB0001DF994F9455004F1240609E0606A48B1FF
:103EC000304601F089F808B100F016FA6D1E6DB2A7
:103ED000002DF3DC4FF0FF3684F8456000F026F942
:103EE00000F004F994F9445004F1100709E0206946
:103EF00048B1384601F070F808B100F0FDF96D1EC8
:103F00006DB2002DF3DC84F84460BDE8F04100F0B0
:103F10000DB900002DE9F0410546002700F0B2FA86
:103F2000324E306808B9FFF745FD706905424ED141
:103F3000C5B3083568070ED005F00700C0F10800CA
:103F40000544680707D0502080F31188BFF34F8FD6
:103F5000BFF36F8FFEE72DB37068854237D82348D3
:103F6000183001460C6801E020460C466168A94201
:103F700002D221680029F7D131688C4227D0076826
:103F80002168016060680837411B10290FD960194A
:103F9000420708D0502080F31188BFF34F8FBFF342
:103FA0006F8FFEE713E041606560FFF7CFFD61684A
:103FB0007068401A7060B268904200D2B060706958
:103FC00001430020C4E90001F068401CF06001F0EA
:103FD0003BF8780707D0502080F31188BFF34F8F4C
:103FE000BFF36F8FFEE73846BDE8F0816C0000201C
:103FF0000449086818B10868026D521C0265086817
:10400000704700001800002010B5031F4FF08074A7
:104010001C601B1F21F001011960191F044B0B606C
:1040200014390A60091F6FF0020244380A6010BD9B
:104030005D3E0008D0E9013201699A60D0E90123B0
:104040005A604A68824201D182684A600022026155
:104050000868401E0860086870470000034B036052
:1040600003F15C0008608020106070477C0900202C
:10407000044B036003F15C0008604FF48070106033
:1040800070470000D80B002000F108014FF0FF320C
:10409000C0E90112C1600161002101607047002187
:1040A0000161704730B50B685A1C02D000F108025C
:1040B00002E0026904E02246546825689D42FAD96C
:1040C00053684B6099608A60516008610168491CBF
:1040D000016030BD42684A6093688B6093685960A4
:1040E000916008610168491C01607047502080F3AD
:1040F0001188BFF34F8FBFF36F8F0A494868401C88
:10410000486001280CD10848006810F0FF0F07D064
:10411000502080F31188BFF34F8FBFF36F8FFEE7FE
:10412000704700008C00002004ED00E0084948685A
:1041300028B1401E486001D180F31188704750209B
:1041400080F31188BFF34F8FBFF36F8FFEE700003E
:104150008C00002070B500282AD0164DA0F108046C
:1041600060686969084207D1502080F31188BFF365
:104170004F8FBFF36F8FFEE722683AB1502080F374
:104180001188BFF34F8FBFF36F8FFEE788436060E6
:1041900000F078F960686968084468602046FFF7B5
:1041A000D5FC2869401C2861BDE8704000F04CBF78
:1041B00070BD00006C0000204FF0E0200021016184
:1041C000816105494FF47A720968B1FBF2F1491E29
:1041D00041610721016170471400002010B5FCF710
:1041E00039F8114910280ED300F1E02090F8F003BF
:1041F0000A78904207D2502080F31188BFF34F8F86
:10420000BFF36F8FFEE709480068896800F4E0603B
:10421000884207D9502080F31188BFF34F8FBFF336
:104220006F8FFEE710BD00008C0000200CED00E059
:1042300010B5084B002200BF53F832401CB1521C8D
:10424000082AF9D310BD43F8321003EBC2014860CD
:1042500010BD00006003002070B515460E460446F0
:10426000FFF744FF94F944100020491C01D184F861
:10427000440094F94510491C01D184F84500FFF72A
:1042800055FFA06B28B92A46314604F1240000F0FE
:1042900051F82046BDE87040FFF706BE10B5020099
:1042A00014D00F48006B38B1502080F31188BFF351
:1042B0004F8FBFF36F8FFEE700F0E4F80021104648
:1042C000FFF752FA00F0C0FE002807D105494FF071
:1042D00080500860BFF34F8FBFF36F8F10BD000099
:1042E0001800002004ED00E002490A6A0260C96873
:1042F000416070471800002001490120C8617047E3
:104300001800002010B50C4650B109490968183151
:10431000FFF7C8FE2046BDE810400121FFF724BA90
:10432000502080F31188BFF34F8FBFF36F8FFEE7EC
:104330001800002070B514460D4668B10A49096896
:104340001831FFF7C7FE0CB14FF0FF352146284664
:10435000BDE87040FFF708BA502080F31188BFF322
:104360004F8FBFF36F8FFEE71800002070B5040079
:104370003ED0226DA2B1E06C884200D30146E06AD3
:10438000884235D0012A33D11A4D2A6894420FD180
:10439000502080F31188BFF34F8FBFF36F8FFEE77C
:1043A000502080F31188BFF34F8FBFF36F8FFEE76C
:1043B000E162A269002A02DBC1F13801A1610E4E5F
:1043C00000EB8000616906EB8000814210D1201D66
:1043D000FFF730FEE06A2969884200D9286100EBC6
:1043E000800006EB8000211DBDE87040FFF772BE23
:1043F00070BD000018000020A003002030B587B079
:104400000024039405AA04A903A80494FFF726FE38
:10441000DDE903010094CDE90110002315A117483F
:10442000059A00F0BAFC164D0028E8621FD000F093
:104430006DFE012809D0401C19D1502080F311884D
:10444000BFF34F8FBFF36F8FFEE7502080F31188CB
:10445000BFF34F8FBFF36F8F4FF0FF30A862012083
:104460006861EC6007B0BDE8304000F045B807B0C7
:1044700030BD000049444C4500000000013A0008EE
:10448000180000200248016B491C016370470000BE
:1044900018000020164810B5016B11B10121C1614F
:1044A00010BD0021C1610169124A01E0B9B1491E84
:1044B00001EB810352F82330002BF7D001EB81038D
:1044C00002EB830202F1080453685B685360A34265
:1044D00001D15B685360DA680260016110BD502051
:1044E00080F31188BFF34F8FBFF36F8FFEE700009B
:1044F00018000020A00300201CB537480168374A87
:10450000914207D1502080F31188BFF34F8FBFF342
:104510006F8FFEE700683149491E884207D150205D
:1045200080F31188BFF34F8FBFF36F8FFEE72C49E5
:1045300008780190FF20087008788DF800009DF839
:1045400000009DF8002000F0F000904207D05020BD
:1045500080F31188BFF34F8FBFF36F8FFEE79DF895
:104560000000204C00F0500020700720A06005E003
:104570009DF8002052008DF80020401E9DF800207C
:104580001206F5D4A060032807D0502080F31188CC
:10459000BFF34F8FBFF36F8FFEE74FF44070A06003
:1045A000019808700C482030016841F470010160E6
:1045B000016841F070410160FFF7FEFD002060607E
:1045C000FBF710FE0848016841F040410160FBF72D
:1045D000F5FD00201CBD000000ED00E071C20F41A0
:1045E00000E400E08C00002034EF00E010B5502023
:1045F00080F31188BFF34F8FBFF36F8F00F00CFC77
:1046000018B104494FF080500860002080F31188F1
:1046100010BD000004ED00E010B5024600210120AD
:1046200000F005F80446FFF71BFA204610BDF8B568
:1046300017460E46050013D005FB06F05030FFF775
:1046400069FC04000AD0002084F8460004F15002FE
:104650003B46314628460094FFF70EFA2046F8BD47
:10466000502080F31188BFF34F8FBFF36F8FFEE7A9
:1046700038B5049D18B153B1CAB181B120E05020C2
:1046800080F31188BFF34F8FBFF36F8FFEE7502089
:1046900080F31188BFF34F8FBFF36F8FFEE7502079
:1046A00080F31188BFF34F8FBFF36F8FFEE739B1EF
:1046B000502080F31188BFF34F8FBFF36F8FFEE759
:1046C00050241C46012384F846302B460094FFF703
:1046D000D3F9204638BD000070B50D46040025D042
:1046E000FFF704FDD4E90F20216802FB0011A1604F
:1046F0000021A163216861600A46D4E90F01401ED0
:1047000000FB0121E16021464FF0FF3001F8440F2A
:10471000487004F110008DB1FFF7B6FC04F12400DD
:10472000FFF7B2FCFFF702FD012070BD502080F3BF
:104730001188BFF34F8FBFF36F8FFEE72169002908
:10474000F0D000F049FC0028ECD004494FF0805034
:104750000860BFF34F8FBFF36F8FE3E704ED00E016
:104760002DE9FF4782B01D468A464FF0000804003D
:1047700003D0BAF1000F08D011E0502080F3118867
:10478000BFF34F8FBFF36F8FFEE7206C38B150201F
:1047900080F31188BFF34F8FBFF36F8FFEE7022DB9
:1047A0000AD1E06B012807D0502080F31188BFF3B5
:1047B0004F8FBFF36F8FFEE700F01AFB3F4F4FF0B4
:1047C00000094FF0805648B9049838B1502080F362
:1047D0001188BFF34F8FBFF36F8FFEE7FFF786FCA3
:1047E000A06BE16B884207D3022D05D00498D0B1AD
:1047F000B8F1000F1AD01EE02A4651462046FFF7B6
:1048000088F8616A19B104F1240000F0E5FB20B1D9
:104810003E60BFF34F8FBFF36F8FFFF787FC012020
:1048200006B0BDE8F087FFF781FC22E06846FFF79D
:104830005BFD4FF00108FFF779FCFFF723FEFFF760
:1048400055FC94F94400401C01D184F8449094F93B
:104850004500401C01D184F84590FFF767FC04A98E
:10486000684600F033FA30B12046FFF71DFB00F038
:10487000EBFB0020D4E7FFF739FCA06BE16B88422B
:1048800013D1FFF753FC04F110000499FFF73AFD30
:104890002046FFF709FB00F0D7FB00289ED13E60C1
:1048A000BFF34F8FBFF36F8F98E7FFF73FFC2046B2
:1048B000FFF7FAFA00F0C8FB90E7000004ED00E013
:1048C0002DE9F0471F4690468946040003D0B9F110
:1048D000000F08D011E0502080F31188BFF34F8FF4
:1048E000BFF36F8FFEE7206C38B1502080F3118842
:1048F000BFF34F8FBFF36F8FFEE7022F0AD1E06B3C
:10490000012807D0502080F31188BFF34F8FBFF3E9
:104910006F8FFEE7FFF762FC5020EFF3118680F304
:104920001188BFF34F8FBFF36F8FA06BE16B88428D
:1049300006D3022F04D0002086F31188BDE8F0874B
:1049400094F94550A06B3A4649462046FEF7E1FFF0
:10495000681C04D06D1C84F845500120ECE7606AA7
:104960000028FAD004F1240000F036FB0028F4D02F
:10497000B8F1000FF1D00121C8F80010EDE770B5D3
:104980000E46040009D0206C78B1502080F31188C5
:10499000BFF34F8FBFF36F8FFEE7502080F3118876
:1049A000BFF34F8FBFF36F8FFEE7206848B9A06851
:1049B00038B1502080F31188BFF34F8FBFF36F8F52
:1049C000FEE7FFF70BFC5020EFF3118580F3118811
:1049D000BFF34F8FBFF36F8FA16BE06B884218D985
:1049E00094F94500491CA163411C04D0401C84F883
:1049F000450001200EE0606A0028FAD004F124008E
:104A000000F0EAFA0028F4D0002EF2D00120306045
:104A1000EFE7002085F3118870BD00002DE9F7470E
:104A2000002683B08A46040003D0BAF1000F08D0F4
:104A300011E0502080F31188BFF34F8FBFF36F8FC9
:104A4000FEE7206C38B1502080F31188BFF34F8F00
:104A5000BFF36F8FFEE700F0CBF9DFF8F4804FF083
:104A600000094FF0805748B9059838B1502080F3BD
:104A70001188BFF34F8FBFF36F8FFEE7FFF736FB51
:104A8000A56BC5B151462046FEF730FF6D1EA563EC
:104A9000206950B104F1100000F09EFA28B1C8F866
:104AA0000070BFF34F8FBFF36F8FFFF73FFB012005
:104AB00006B0BDE8F087059808B11EB106E0FFF723
:104AC00035FB27E06846FFF70FFC0126FFF72EFBBA
:104AD000FFF7D8FCFFF70AFB94F94400401C01D112
:104AE00084F8449094F94500401C01D184F8459025
:104AF000FFF71CFB05A9684600F0E8F800282046EF
:104B00000AD0FFF7D1F900F09FFA2046FFF760F8CE
:104B10000028B3D00020CBE7FFF75AF890B104F19A
:104B200024000599FFF7EEFB2046FFF7BDF900F0E2
:104B30008BFA0028A2D1C8F80070BFF34F8FBFF3E3
:104B40006F8F9BE72046FFF7AFF900F07DFA95E7FE
:104B500004ED00E02DE9F343002683B00400354660
:104B600009D0206C78B1502080F31188BFF34F8FAB
:104B7000BFF36F8FFEE7502080F31188BFF34F8F94
:104B8000BFF36F8FFEE700F033F9DFF83C814FF0A1
:104B900000094FF0805748B9049838B1502080F38D
:104BA0001188BFF34F8FBFF36F8FFEE7FFF79EFAB9
:104BB000A06BC8B1401EA063206810B9FFF718FAB7
:104BC000A060206950B104F1100000F005FA28B18E
:104BD000C8F80070BFF34F8FBFF36F8FFFF7A6FACF
:104BE000012005B0BDE8F083049808B166B10FE07C
:104BF0003DB1502080F31188BFF34F8FBFF36F8F0B
:104C0000FEE7FFF793FA5DE06846FFF76DFB0126CC
:104C1000FFF78CFAFFF736FCFFF768FA94F94400C7
:104C2000401C01D184F8449094F94500401C01D106
:104C300084F84590FFF77AFA04A9684600F046F830
:104C40000028204612D0FFF72FF900F0FDF920468A
:104C5000FEF7BEFF0028A9D09DB3FFF747FA606AB0
:104C600050B3206B0068C0F1380126E0FEF7B0FFBA
:104C7000E0B1206838B9FFF739FAA06800F070F9A0
:104C80000546FFF753FA04F124000499FFF73AFBB5
:104C90002046FFF709F900F0D7F9002886D1C8F8B7
:104CA0000070BFF34F8FBFF36F8F7FE72046FFF792
:104CB000FBF800F0C9F979E70021A068FFF756FB7F
:104CC0009FE7FFE700208CE704ED00E02DE9F041CD
:104CD0000C46050011D0C4B1FFF708FA174BDA688B
:104CE0006E682068911B471C17D02F681B6A9F4273
:104CF00019D0964217D8012410E0502080F3118873
:104D0000BFF34F8FBFF36F8FFEE7502080F3118802
:104D1000BFF34F8FBFF36F8FFEE70024FFF706FA54
:104D20002046BDE8F081884205D9401A2060284617
:104D3000FFF7DAFAF1E700202060DCE71800002036
:104D40002DE9FF5F8346DDE90E87994616468A46C0
:104D50009000FFF7DFF805001CD05C20FFF7DAF8C1
:104D6000040014D00020256384F85900CDE90240E6
:104D7000CDE900874B46324651465846FEF78EFE37
:104D80002046FEF71FFD012004B0BDE8F09F284635
:104D9000FFF7E0F94FF0FF30F6E7F0B585B0DDE959
:104DA0000B640A9DA6B1DCB15C270097266302263E
:104DB00084F85960002604AFCDE90246CDE90057DA
:104DC000FEF76CFE2046FEF7FDFC049805B0F0BD32
:104DD000502080F31188BFF34F8FBFF36F8FFEE732
:104DE000502080F31188BFF34F8FBFF36F8FFEE722
:104DF0000548416919B1006B18B1002070470120C6
:104E00007047022070470000180000200148C06869
:104E100070470000180000202DE9F0412E4C0027BB
:104E2000206B28B1A069401CA0613846BDE8F08124
:104E3000E668761CE66013D1606B006838B15020DC
:104E400080F31188BFF34F8FBFF36F8FFEE7606B66
:104E5000A16B6163A063206A401C2062FEF7A4FF7F
:104E6000A06ADFF87880864209D3606B0068A0B141
:104E7000606BC068C5686868864211D2A06220680D
:104E8000C06A00EB800158F82100012800D90127F1
:104E9000E0690028C9D00127C7E74FF0FF30EDE7F0
:104EA000281DFFF7C7F8A86A18B105F11800FFF729
:104EB000C1F8E86A2169884200D9206100EB8001CD
:104EC00008EB8100291DFFF705F9E86A2168C96A26
:104ED0008842CAD30127C8E718000020A003002099
:104EE00070B504004FF0000133D01B4D2868844298
:104EF00007D0502080F31188BFF34F8FBFF36F8F1F
:104F0000FEE7206D38B1401E2065E36CE26A9A42EC
:104F10001FD040B11DE0502080F31188BFF34F8FA8
:104F2000BFF36F8FFEE7201DFFF784F8E06CE062AF
:104F3000C0F13800A061E06A2969884200D928617F
:104F4000064900EB800001EB8000211DFFF7C2F84D
:104F50000121084670BD000018000020A0030020B9
:104F600070B504004FF000002BD0194DE16A2A689B
:104F7000D26A914226D2A069002804DB2868C06A60
:104F8000C0F13800A061134E01EB8101606906EBAE
:104F90008101884211D1201DFFF74CF82868C06AB2
:104FA000E0622969884200D9286100EB800006EBA5
:104FB0008000211DFFF78EF802E02868C06AE062D9
:104FC000012070BDE16C2A68D26A9142F8D370BDAD
:104FD00018000020A003002070B5C068C46854B158
:104FE00004F118000646FFF725F8144D286B50B160
:104FF0003146134815E0502080F31188BFF34F8FDE
:10500000BFF36F8FFEE7201DFFF714F8E06A2969F0
:10501000884200D928610B4900EB800001EB800039
:10502000211DFFF757F8E06A2968C96A884202D94A
:105030000120E86170BD002070BD00001800002054
:1050400028080020A00300202DE9F0472C4D002463
:105050002746286B38B1FFF749F8286B401E2863B4
:10506000286B40B146E0502080F31188BFF34F8F8A
:10507000BFF36F8FFEE7A968224E0120D1B3A6F5DA
:10508000916980463068E0B1F068C46804F11800A6
:10509000FEF7D0FF201DFEF7CDFFE06A29698842A8
:1050A00000D9286100EB800109EB8100211DFFF789
:1050B00011F8E06A2968C96A8842E3D3C5F81C8000
:1050C000E0E70CB1FEF770FEAC694CB14FEA0806A0
:1050D000FFF7A2FE00B1EE61641EF9D10020A861C5
:1050E000E86938B10849012738070860BFF34F8FD6
:1050F000BFF36F8FFFF71AF83846BDE8F08700005E
:10510000180000202808002004ED00E010B586B04B
:10511000FEF7C0FB114C2068B8B10020039004904A
:1051200005AA04A903A8FEF7A3FFDDE903210220D5
:105130008DE8070000230AA10B48059AFFF72DFE12
:10514000606010B106B0012010BD502080F31188BE
:10515000BFF34F8FBFF36F8FFEE7000054000020B6
:10516000546D722053766300853E00082DE9FF419F
:105170001E46134602000A9D4FF0000016D0144C44
:105180002768002F0FD0CDE900130292062917DA05
:10519000FFF72EFE02284FF000030FD000226946D1
:1051A0002068FFF7DDFA04B0BDE8F081502080F3FD
:1051B0001188BFF34F8FBFF36F8FFEE72A46EEE7EC
:1051C0000023324669463846FFF77AFBEBE70000DA
:1051D000540000202DED028B40F26D10FFF75EF8B9
:1051E000294E2A4F2A4C2B4D9FED2B8A40F2052841
:1051F000307A032802D001281BD040E025493889A5
:10520000083100F6E44008812248B4F90010083063
:10521000FBF776FA28800246B4F90210B0EE481A7D
:10522000F1EE040AB3EE0E0A1C48FDF7B9FC6880E3
:1052300020E0B7F908000F2190FBF1F0154900229A
:105240001C310881164815490C310068FFF7E6FB50
:1052500010481C30FBF718FAA8800246B4F9021077
:10526000B0EE481AF1EE040AB3EE0E0A0B48FDF751
:1052700097FCE8804042414600B2FBF7CFFA082095
:10528000FFF70CF8B4E70000584C0020624C0020F7
:10529000F40000204C01002000000000804D0020A0
:1052A0007C010020E852000800000000000000001F
:1052B00000000000000000000002000018000000D4
:1052C0000000000000000000000610160006101686
:1052D00000000000000000000102030406070809A6
:1052E00000000000010203044C45445461736B004C
:1052F0001053000800000020800100003006000864
:105300003053000880010020405000009432000813
:105310008132018210037924F41AAA0101A72240E4
:105320000515803FE40C0A103F1C1A80302918E153
:040000050800018965
:00000001FF
