:020000040800F2
:10000000E85100205D020008EB2C00085D28000884
:10001000E92C0008BD080008C133000800000000FA
:100020000000000000000000000000009D0100082A
:10003000110C000800000000F9010008452E00081E
:1000400077020008770200087702000877020008AC
:10005000770200087702000877020008770200089C
:10006000770200087702000877020008770200088C
:10007000550B000877020008770200087702000895
:10008000770200087702000877020008770200086C
:10009000C10800087702000877020008770200080C
:1000A000770200087702000877020008770200084C
:1000B000770200087702000877020008770200083C
:1000C000770200087702000877020008770200082C
:1000D000770200089933000877020008AD33000862
:1000E000770200087702000877020008770200080C
:1000F00077020008770200087702000877020008FC
:100100007702000877020008052F00087702000830
:1001100077020008770200087702000877020008DB
:100120007702000877020008610B000877020008D8
:1001300077020008770200087702000877020008BB
:10014000CD0800087702000877020008770200084F
:10015000770200087702000877020008770200089B
:10016000770200087702000877020008770200088B
:1001700077020008770200087702000800000000FC
:100180007702000877020008DFF80CD000F03EFA92
:10019000004800471B360008E85100202C4B196826
:1001A0000868B0E8F04F80F30988BFF36F8F4FF015
:1001B000000080F3118870470000000008480068C4
:1001C000006880F308884FF0000080F3148862B65E
:1001D00061B6BFF34F8FBFF36F8F00DF00BF00BF6B
:1001E00008ED00E0DFF80C00016841F470010160E7
:1001F000704700BF88ED00E0EFF30980BFF36F8F19
:10020000134B1A681EF0100F08BF20ED108A20E96A
:10021000F04F106009B44FF0500080F31188BFF325
:100220004F8FBFF36F8F04F02FF94FF0000080F372
:10023000118809BC19680868B0E8F04F1EF0100F6B
:1002400008BFB0EC108A80F30988BFF36F8F704746
:1002500018000020EFF30580704700000648804733
:1002600006480047FEE7FEE7FEE7FEE7FEE7FEE79B
:10027000FEE7FEE7FEE7FEE7F52E0008890100082D
:100280002DE9F05F0546002092469B4688460646CB
:10029000814640241BE0284641464746224600F05E
:1002A00011F953465A46C01A914110D311461846C7
:1002B000224600F0F8F82D1A67EB01084F46224657
:1002C0000120002100F0EFF817EB00094E41201E3D
:1002D000A4F10104DFDC484631462A464346BDE826
:1002E000F09F40EA01039B0703D009E008C9121FF1
:1002F00008C0042AFAD203E011F8013B00F8013BE0
:10030000521EF9D27047D2B201E000F8012B491E0B
:10031000FBD270470022F6E710B513460A460446A2
:100320001946FFF7F0FF204610BD2DE9FE4F81EA88
:10033000030404F0004421F0004100944FF0000B4E
:1003400023F0004350EA01045ED052EA03045BD07C
:10035000C3F30A54C1F30A552C44A4F2F3340194B4
:10036000A0FB0254C1F3130141F48011C3F3130342
:1003700043F4801301FB024400FB034E840A970AF6
:1003800044EA815447EA8357A4FB076802958D0A23
:1003900005FB07854FEA932C04FB0C542705029DAF
:1003A0004FEA065847EA1637B5EB08056EEB070C1F
:1003B000870E920E47EA811742EA8312A7FB0201D9
:1003C000B6EB0B0164EB00042B0D43EA0C335E1813
:1003D00044EB1C50DA465146E7FB0201C5F3130417
:1003E0004FEA0B3343EA14534FEA0432019C43EAC9
:1003F0000603A4F10C040294009CCDE900B400F0C3
:10040000B7F803B0BDE8F08F00200146F9E70EB55C
:10041000C10F80EAE0700844CA07002140F233436C
:100420008DE80E000A460B4600F0A2F803B000BDAE
:1004300070B5C1F30A5201F000450024C1F3130165
:1004400040F2FF3341F480119A4201DA002070BD7E
:1004500040F233439A42A2F2334203DC524200F0AC
:1004600031F800E090402C43F1D0404270BD01F0E3
:10047000004330B421F0004150EA010206D00A0DD9
:10048000A2F56072C1F31301002A02DC30BC002027
:100490007047440F44EAC104C100E01830BC00EBCF
:1004A000C25000F01FB8202A04DB203A00FA02F103
:1004B000002070479140C2F1200320FA03F3194352
:1004C00090407047202A04DB203A21FA02F00021F4
:1004D000704721FA02F3D040C2F120029140084354
:1004E000194670470029A8BF7047401C490008BF43
:1004F00020F00100704710B4B0FA80FC00FA0CF054
:1005000050EA010404BF10BC704749B1CCF120048B
:1005100021FA04F411FA0CF118BF01212143084318
:10052000A3EB0C01CB1D4FEA00614FEA102042BF44
:10053000002010BC704700EBC35010440029A4BF3A
:1005400010BC7047401C490008BF20F0010010BCDF
:10055000704710B5141E73F1000408DA401C41F115
:10056000000192185B411A4301D120F0010010BD37
:100570002DE9F04D92469B4611B1B1FA81F202E0AD
:10058000B0FA80F220329046FFF78DFF04460F4606
:1005900040EA0A0041EA0B0153465A46084313D089
:1005A000114653EA010019D0C8F140025046FFF746
:1005B00089FF05460E46504659464246FFF773FFEF
:1005C000084305D0012004E020463946BDE8F08DFF
:1005D0000020054346EAE0762C4337430A9863053A
:1005E000E40AA0EB08000022FD0A44EA47540A305E
:1005F00002D500200146E9E7010510196941DDE94E
:10060000084500196941BDE8F04DA2E7064C074DC9
:1006100006E0E06840F0010394E8070098471034D2
:10062000AC42F6D3FFF7B4FDE452000804530008CF
:1006300070B58C1810F8015B15F0070301D110F8A4
:10064000013B2A1106D110F8012B03E010F8016BD1
:1006500001F8016B5B1EF9D12B0705D40023521E54
:100660000DD401F8013BFAE710F8013BCB1A921CBC
:1006700003E013F8015B01F8015B521EF9D5A142BA
:10068000D8D3002070BD0000B0F90810184A00EE61
:10069000101A184BD2ED020AB8EEC00A30EE600A0A
:1006A000DFED150A10EE101A80ED030A994202DD03
:1006B00030EE600A06E010EE101A104B994203D992
:1006C00030EE200A80ED030A92ED050AD0ED010A12
:1006D00090ED001A20EE200AD0ED030A00EEC10AC8
:1006E000BDEEC00A10EE101A09B20182084670472A
:1006F000A44D0020000034430000B443000034C384
:100700004FF49E7003F0C4FDDFF838914C4F4E4D0E
:100710004E4E4FF416784FF4005B09F1140AA9F11C
:10072000100400BFB7F90600404517DDB9F808000E
:100730002288104401B2A9F80810BAF808309A1AB1
:1007400012B2AAF80820594503DDA1F50051A9F815
:100750000810002A1EDA02F5005219E010F5167F83
:1007600018DAB9F808002288801A01B2A9F808102E
:10077000BAF8083000291A4412B2AAF8082003DA9D
:1007800001F50051A9F808105A4503DDA2F5005201
:10079000AAF808202C492B4803F030FC29482B49A3
:1007A000143003F02BFCB5F90010264800F052F885
:1007B000404200EE100A2348B8EEC00A143084ED1F
:1007C000030AB6F9001000F045F8404200EE100AA6
:1007D000F1EE020AB8EEC00A84ED020A94ED031AA3
:1007E000B5F90210B2EE000ABDEEC11A11EE100A00
:1007F00002B2174802F07AFA608094ED021AB6F954
:100800000210F1EE020ABDEEC11AB2EE000A11EEBC
:10081000100A02B20E480A3002F068FAA08040F2D4
:100820000521B4F9020000F0A3F840F20621B4F962
:10083000040000F09DF80A2003F02AFD72E7000092
:100840008C4C00208C010020F4000020FC000020D3
:10085000D44D0020B0F90820511A00EE101A1649A4
:10086000B8EEC00A80ED030AB1F9022000EE902A2A
:10087000F8EEE00A70EE600AFDEEE00A10EE902A53
:1008800012B20A80D0ED000AD0ED011A20EEC01A93
:1008900000EE902ABDEEC00AF8EEE00A01EEE01A82
:1008A000FDEEC10A10EE902A12B2028210EE100A7A
:1008B00048801046704700000C010020FEE7000051
:1008C000014800F01ABB0000B4010020014800F00C
:1008D00014BB0000DC01002000B58BB0002001211A
:1008E000CDE906018A03CDE900200290039004902F
:1008F0000E20CDE9081005906946024800F002FA82
:100900000BB000BDDC01002000B58BB00020012140
:100910008A03CDE90601CDE900204FF4FC42CDE980
:100920000220049005900E20CDE908106946024887
:1009300000F0E8F90BB000BDB401002010B5FFF7DE
:10094000E3FFFFF7C9FF084800F056FD074800F035
:1009500053FD0221044800F05EF9BDE81040022179
:10096000024800F058B90000B4010020DC0100206A
:1009700010B5184A40F2FF13082413600023536097
:100980009360C2E903341375C0F30723124AA1F53B
:100990000071C0B2053906D0012907D0022908D05C
:1009A00003290BD108E01370507007E09370D070EA
:1009B00004E01371507101E09371D071064B064A47
:1009C000143B0449054800F038F9002800D0012004
:1009D00010BD0000F84C0020C4000020DC01002005
:1009E000F0B40F4C4FF400750826256000256560B3
:1009F000A560C4E9035625750A4C050A2570607088
:100A0000080AA070E170100A20716271180AA071C2
:100A1000E371231FF0BC1A1D0149034800F00DB912
:100A2000C44C0020B4000020B401002070B5454A39
:100A30001088C0F30A01444801805378A1F5806111
:100A4000DC08937801EB410144EA4314C4F30A063D
:100A50004680D4789B0943EA84041379890044EAE8
:100A60008324C4F30A0585805C085379A5F5806565
:100A700044EAC314C4F30A04C48005EB45008500AE
:100A800002F12400A4F5806404EB44040580A40072
:100A9000448081807104A1F100610914C180990929
:100AA0000172C3F301114172D189143001F00103C5
:100AB00001804380C1F340038380C1F38003C3807E
:100AC000C1F3C0030381C1F300134381C1F3401399
:100AD0008381C1F38013C381C1F3C0130382C1F3C7
:100AE00000234382C1F340238382C1F38023C38266
:100AF000C1F3C0230383C1F300334383C1F3403305
:100B00008383C1F38033C383C90B018402F12E04B4
:100B1000D0882080108960805089A080107BA071CF
:100B2000507BE071108AC0F58060FFF770FC9FED8C
:100B3000071B53EC112BFFF7F8FBFFF779FC208123
:100B400070BD0000684C0020A800002000000000DC
:100B500000000440014800F0DDBC0000EC02002071
:100B6000014800F0D7BC00008C0200200168182367
:100B7000CAB2103AB2FBF3F2054B6FF30901032A34
:100B80009B5CC36500D9091D81650846704700005C
:100B9000BC52000810B5014600208B698A6A4FF0EC
:100BA000C07453B1B3F5005F15D072B1012A0CD0F7
:100BB000022A0AD0032A09D104E01AB1012A06D078
:100BC000022A03D1C96AC90100D5012010BDC96A32
:100BD000A142FAD010BD002AF7D0012AF2D0022A91
:100BE000F3D0032AF3D010BD30B50468256825F48E
:100BF00080252560046863608368402B036803D008
:100C000099600068C26030BD9A600068C16030BD04
:100C1000704772B6FEE790F82020012A07D0022A1A
:100C200005D0416A41F4802141620120704700688B
:100C300042690A43426100207047F0B590F82050A5
:100C40000468A468012D05D0022D03D0416A41F447
:100C5000802153E014F0406F01D1E5004BD5C4F37F
:100C60000164022C03D9416A41F4000146E00125E8
:100C7000A5401D608D684FF4C0739DB1CE683543AB
:100C80004E6845EAC605066803EB0417F5514FF4B4
:100C9000C275076805EB04150E697E51097D0129AF
:100CA00005D009E00E88CD6845EA4655EBE70168B6
:100CB0004E5946F480764E511179D2F805504FF4D2
:100CC000C67641EA0525016806EB04168D511178B8
:100CD000D2F801204FF4C47541EA0221026805EB05
:100CE00004155151006803EB0411425842F001020F
:100CF00042500020F0BD416A41F4001141620120E0
:100D0000F0BD000010B590F82020012A07D0022A7B
:100D100005D0416A41F480214162012010BD3B4869
:100D2000D0F8002242F00102C0F80022D0F80022E0
:100D300022F47C52C0F80022D0F800224B6A42EA2A
:100D40000322C0F800220A7D02F01F0301229A400C
:100D5000D0F81C329343C0F81C32CB69B3B9D0F839
:100D60000C329343C0F80C328C894B6864F31F43F8
:100D70004C6900EBC404C4F840320C890B6864F37E
:100D80001F434C6900EBC404C4F84432CB69012B07
:100D900016D1D0F80C321343C0F80C320C884B68D3
:100DA00064F31F434C6900EBC404C4F840320C895F
:100DB000CB6864F31F434C6900EBC404C4F84432AD
:100DC0008B69002BD0F804320ED01343C0F80432E4
:100DD0000B69002BD0F8143208D01343C0F814323A
:100DE000096A012904D008E09343EFE79343F5E74C
:100DF000D0F81C121143C0F81C12D0F8001221F0D8
:100E00000101C0F80012002010BD00000064004085
:100E1000704730B590F82040012C05D0022C03D04B
:100E2000416A41F480215DE00468002955D02469BD
:100E3000A40754D04FF4D874056804EB01142D595D
:100E400015F00405956005682D594ED0ED085560E4
:100E500005682C5904F00204D4604FF4DA74056874
:100E600004EB01142D5905F00F05156105682D5986
:100E7000C5F30725956105682C59240C54614FF47E
:100E8000DC72046802EB0112A4581C700468A458B8
:100E9000240A5C700468A458240C9C700468A2584E
:100EA000120EDA704FF4DE72046802EB0112A458DD
:100EB0001C710468A458240A5C710468A458240CAA
:100EC0009C710468A258120EDA71006881B1016940
:100ED00041F020010161002030BDE468A8E7416ACB
:100EE00041F400114162012030BD6D0D1560AFE786
:100EF000C16841F02001C160EDE72DE9F05F0546D2
:100F0000006800244669D0F804908768D0F80CB0D7
:100F1000D0F810A0D0F81880F10748D0F90714D005
:100F200001218160B80703D5284600F092FA0CE051
:100F3000780702D54FF4006407E0380702D54FF474
:100F4000805402E0284600F083FAF80516D5296897
:100F50004FF480708860B80503D5284600F07BFA0E
:100F60000CE0780502D544F4005407E0380502D5BA
:100F700044F4804402E0284600F06CFAF80316D5E9
:100F800029684FF480308860B80303D5284600F004
:100F900064FA0CE0780302D544F4004407E0380317
:100FA00002D544F4803402E0284600F055FA3007B8
:100FB00007D55FEACB6004D52968102044F400749B
:100FC000C86070074FF0080707D55FEA0B7004D5BB
:100FD0002868C760284600F099F9B00706D5286848
:100FE000C068800702D0284600F092F9700607D545
:100FF0005FEACA6004D52968102044F4806408615F
:10100000B00607D55FEA0A7004D52868076128464C
:1010100000F0EEF9F00606D528680069800702D0D6
:10102000284600F0E6F9B00308D55FEAC96005D5A7
:10103000296810204860284600F0DCF9F00307D545
:101040005FEA097004D528684760284600F006FA70
:10105000300446D55FEA497040D5F00504D55FEA13
:10106000C87001D044F00104B00504D55FEA88706F
:1010700001D544F00204700504D55FEA487001D53B
:1010800044F00404300529D518F0700F26D008F07C
:101090007000402815D006DC102809D020280AD07E
:1010A000302816D10AE050280ED0602811D10EE069
:1010B00044F008040DE044F010040AE044F0200479
:1010C00007E044F0400404E044F0800401E044F40C
:1010D00080742868816921F0700181612968042089
:1010E0004860002C05D0686A204368622846FFF7F4
:1010F0008FFEBDE8F09F70B5040003D094F8200087
:1011000010B104E0012070BD204600F081F8206895
:10111000016841F00101016000F06CFC0546052604
:1011200004E000F067FC401B0A2811D820684068E2
:10113000C007F6D02068016821F00201016000F0CC
:1011400059FC05460BE000F055FC401B0A2806D967
:10115000606A40F40030606284F82060D2E7206862
:1011600040688007EFD4207E0128206801683DD0C8
:1011700021F080010160607E01282068016838D07C
:1011800021F040010160A07E01282068016833D071
:1011900021F020010160E07E0128206801682ED046
:1011A00041F010010160207F01282068016829D0EA
:1011B00021F008010160607F01282068016824D0C7
:1011C00021F004010160D4E902010843D4E90412CA
:1011D000114308436168491E08432168C861002023
:1011E0006062012084F82000002070BD41F0800181
:1011F000C0E741F04001C5E741F02001CAE721F016
:101200001001CFE741F00801D4E741F00401D9E72C
:10121000F0B587B0044614216846FFF77BF8364BDB
:101220003648DFF8D0E01968D4F800C0334A032507
:101230000226092710300024491CF44522D11960E8
:10124000012907D1016841F000710160006800F0D8
:1012500000700590106840F0080010601068CDE93B
:10126000005600F00800CDE9047069462448CDE935
:10127000024500F0C1FA00220521142000F058FCBC
:10128000142032E0DFF87CE0F44530D1D0F800C023
:101290004CF0806CC0F800C0D0F800C001290CF000
:1012A000806CCDF814C0196007D1016841F000715D
:1012B0000160006800F000700590106840F00200C6
:1012C0001060106802AB00F0020005906020CDE9CC
:1012D000000683E8B00069460B4800F08DFA002252
:1012E0000521402000F024FC402000F013FC07B052
:1012F000F0BD0000006400400400002030380240CF
:10130000000C0240006800400004024070470000EA
:1013100070B5334D0446A84227D1324B324A0021E2
:101320002846FFF776FD30482E490068A0F500708A
:10133000013806D0012809D002282DD003280AD16F
:101340002FE04888274940BA183103E048882549EA
:1013500040BA2031488002212148FFF75CFC20B1CF
:101360002868416941F002014161204DAC4235D10C
:101370001C4B1D4A1033343200212846FFF749FD2B
:101380001948343001681748A1F50071103005394B
:101390000CD0012917D10EE04888124940BA2831F3
:1013A000D8E748880F4940BA3031D3E701884ABAB4
:1013B0000C49383103E001884ABA0A4940310A80B1
:1013C000408840BA488002210848FFF724FC0028E2
:1013D00004D02868416941F00201416170BD0000FC
:1013E000B4010020BC000020DC4C0020DC01002007
:1013F000704770477047000070B5044690F82000B1
:10140000012804D0606A40F40020606218E00220E5
:1014100084F820002068016821F00101016000F0DB
:10142000E9FA05460EE000BF00F0E4FA401B0A2886
:1014300008D9606A40F400306062052084F820001A
:10144000012070BD20684068C007EDD1606270BDAA
:1014500070477047704770477047704770472DE975
:10146000F0410446876D00F0C5FA064694F8350051
:101470000025022806D08020606584F834500120C1
:10148000BDE8F0812068016821F016010160206844
:10149000416921F080014161206C08B9A06C20B144
:1014A0002068016821F0080101602068016821F0CE
:1014B000010101600CE000F09DFA801B052807D9AE
:1014C00020206065032084F8350084F83450D7E785
:1014D00020680068C007EED194F85C103F20884077
:1014E000B860012084F8350084F834500020C7E744
:1014F00090F83510022903D0802141650120704702
:10150000052180F835100068016821F001010160B3
:10151000002070472DE9F84304464FF00009CDF84C
:10152000009063484FF41651A56D0068B0FBF1F7C9
:101530002E6894F85C10082000FA01F131420FD0B7
:1015400021680A6852070BD50A6822F004020A6073
:1015500094F85C108840A860606D40F00100606500
:1015600094F85C104FF0010808FA01F0304208D0FE
:1015700021684969090604D5A860606D40F0020041
:10158000606594F85C1004208840304208D02168DF
:101590000968890704D5A860606D40F004006065A3
:1015A00094F85C1010208840304218D021680968F7
:1015B000090714D5A86020680168490304D50068AC
:1015C000000308D5A16C07E00168C90503D40168D0
:1015D00021F008010160216C09B12046884794F888
:1015E0005C1020208840304231D021680968C9064B
:1015F0002DD5A86094F8350005282068016806D02C
:10160000490347D5006800031DD4616C1CE021F03C
:10161000160101602068416921F080014161206C60
:1016200008B9A06C20B12068016821F008010160B0
:1016300094F85C103F208840A86084F8358084F8D6
:101640003490216D1FE0E16B09B120468847606D41
:1016500000282BD0606DC00714D0052084F8350019
:101660002068016821F0010101600098401C009091
:10167000B84203D820680068C007F6D184F83580E6
:1016800084F83490E16C002910D001B02046BDE808
:10169000F04308470168C905D5D4016821F010015D
:1016A000016084F8358084F83490CCE7BDE8F88395
:1016B000140000202DE9F041044600F09BF9064695
:1016C0005CB1022084F83500002584F8345020688D
:1016D000016821F0010101600DE00120BDE8F08109
:1016E00000F088F9801B052805D9202060650320BB
:1016F00084F83500F2E720680068C007F0D122685E
:10170000116820480140D4E901031843D4E90336A5
:101710003343184363691843A3691843E3691843C3
:10172000236A18430843616A042903D1D4E90B13DF
:1017300019430843106020684069666A20F0070179
:1017400030460E43012704280CD1A06A0643E06A04
:1017500040B12046FFF71EFA20B14020606584F8B2
:101760003570BAE7206846612046FFF7FFF994F824
:101770005C203F2191408160656584F835700020D0
:10178000ACE700003F8010F02DE9F0410446866D83
:1017900090F83400002501280DD0012084F8340091
:1017A00094F835700020012F07D084F8340002250A
:1017B0002846BDE8F0810220FBE7022784F8357057
:1017C00060652046FFF710FA94F85C103F208840CF
:1017D000B0602068016841F016010160206C20B102
:1017E0002068016841F0080101602068016841F04B
:1017F00001010160DCE700002DE9F84FDFF8BCA132
:101800000022012503264FF00F090AF1040BAAF16B
:10181000040E00BF0B6805FA02F42340A34270D106
:101820000F7907F00307012F01D0022F16D1876827
:101830004FEA420806FA08FC27EA0C07D1F80CC068
:101840000CFA08FC4CEA070CC0F808C04768A7432C
:101850000C79C4F3001494403C4344600C79E44395
:10186000A4070AD0C4684FEA420C06FA0CF7BC433E
:101870008F6807FA0CF72743C7600C7904F003045C
:10188000022C12D1D40800EB840CDCF8204057075E
:10189000FF0E09FA07F824EA0804D1F8108008FAC4
:1018A00007F848EA0408CCF8208004684FEA420CA4
:1018B00006FA0CF7BC430F7907F0030707FA0CF799
:1018C000274307604C6814F4403F70D03C4C2768B5
:1018D00047F480472760246822F0030704F480441B
:1018E0000094384C07EB040CDCF8084897074FEAE3
:1018F000177809FA08F7BC43334FB84202D10027E2
:1019000024E054E0314FB84201D101271EE0304FAE
:10191000B84201D1022719E02E4FB84201D1032766
:1019200014E02D4FB84201D104270FE02B4FB842ED
:1019300001D105270AE02A4FB84201D1062705E068
:10194000284FB84201D1072700E0082707FA08F717
:101950002743CCF80878DAF800405746D1F804C09D
:101960009C435FEACC2C00D51C433C60DBF8004074
:101970005F46D1F804C09C435FEA8C2C00D51C4321
:101980003C60DEF800407746D1F804C09C435FEA33
:101990008C3C00D51C433C60084F083F3C68D1F8A4
:1019A00004C09C435FEACC3C00D51C433C60521C05
:1019B000102AFFF42FAFBDE8F88F0000083C01406B
:1019C0004438024000300140000002400004024060
:1019D00000080240000C02400010024000140240C7
:1019E00000180240001C02400AB1816170470904DE
:1019F000FBE70000014880687047000008000020F5
:101A00000248816802781144816070470800002014
:101A10000B4810B5016841F400710160016841F4A0
:101A200080610160016841F480710160032000F071
:101A30009FF80F2000F006F800F050F8002010BDCD
:101A4000003C024030B505461F4887B000240168BD
:101A500041F008010160006806A900F0080000904C
:101A600001A800F031F90498A8B100F04DF9400048
:101A70001649174AB0FBF1F11648491E026040F2C0
:101A8000E732C0E90324C0E90114846100F046FB99
:101A9000040003D015E000F037F9E9E70D4800F045
:101AA0006BFB04000DD1322000F034F8102D07D26A
:101AB00000222946322000F03BF80748056000E08C
:101AC000012407B0204630BD4038024040420F009C
:101AD000000C00404C0300200C0000200C4882B099
:101AE000016841F480410160006800F4804000908A
:101AF0000748001F016841F0805101600068002222
:101B000000F0805000900F21901E02B000F010B83D
:101B100044380240002809DB00F01F0201219140F7
:101B20004009800000F1E020C0F80011704700007B
:101B3000F0B40E4B1B680C46C3F30223C3F1070538
:101B4000042D00D90425191D072901D2002300E026
:101B5000DB1E012606FA05F1491E214099409E40F0
:101B6000761E16403143F0BC01F04ABC0CED00E09B
:101B7000064900F0070208684FF6FF03184040EAE4
:101B80000220034A10430860704700000CED00E09B
:101B90000000FA052DE9F0470E46050065D0DFF894
:101BA0001481D8F80000F7B200F00700B04207D265
:101BB00088F80070D8F8000000F00700B04254D157
:101BC00028683D4C810712D5400703D5206840F4B2
:101BD000E05020602878000703D5206840F460407A
:101BE00020602068A96820F0F00008432060287871
:101BF000C0072DD0304968680839012812D0022862
:101C000013D0032811D00968890700292DDA21682B
:101C100021F0030101432160FFF7ECFE814641F210
:101C2000883A0EE009688903EFE709688901ECE763
:101C3000FFF7E0FEA0EB0901514502D90320BDE802
:101C4000F0872068696800F00C00B0EB810FEFD1DD
:101C5000D8F80010404601F00701B14207D90770DB
:101C6000006800F00700B04201D00120E7E72878C3
:101C7000400705D52068E96820F4E050084320605B
:101C80002878000706D52068296920F4604040EADA
:101C9000C100206000F058F82168084AC1F3031120
:101CA000515CC8400649086006480068FFF7CAFE54
:101CB0000020C4E7003C024008380240C45200083B
:101CC000140000200C0000200F2202600C4A136850
:101CD00003F003034360136803F0F00383601368A9
:101CE00003F4E053C36012684FF4E05303EAD202F6
:101CF00002610448006800F00700086070470000B7
:101D000008380240003C0240044805490068096860
:101D1000044AC1F38221515CC8407047140000207E
:101D200008380240D4520008044805490068096890
:101D3000044AC1F34231515CC8407047140000208E
:101D400008380240D4520008154810B5006810F059
:101D50000C02144813D01449042A0FD0082A0ED1BB
:101D60000F4C241F2268236802F03F025B0207D554
:101D70002068C0F38810A0FB010106E0084610BDF2
:101D80002168C1F38811A1FB00010023FEF778FA56
:101D90002168C1F30141491C4900B0FBF1F010BDBD
:101DA000083802400024F400001BB7002DE9F84F6A
:101DB00004006ED02078DFF84C93C007A9F1040529
:101DC0004AD009F104000168C1F38101012908D05A
:101DD0000068C0F3810002280AD1D9F8000040024F
:101DE00006D52868800337D560680028E1D033E045
:101DF0006068B0F5803F10D0B0F5A02F286810D0F3
:101E000020F480302860286820F4802028606068F2
:101E1000A8B1FFF7EFFD06460DE0286840F48030DA
:101E2000F4E740F480202860F7E700BFFFF7E2FD09
:101E3000801B642873D828688003F7D50CE0FFF76F
:101E4000D9FD064605E000BFFFF7D4FD801B6428DE
:101E5000F0D828688003F7D42078DFF8AC828007B8
:101E60004FF0000A3ED5A748001D016811F00C0F85
:101E700008D00068C0F3810002280BD1D9F8000017
:101E8000400207D42868800716D5E068012800D1F1
:101E900012E033E1E068B8B10120C8F80000FFF7B4
:101EA000A9FD064605E000BFFFF7A4FD801B022840
:101EB000C0D828688007F7D52868216920F0F80085
:101EC00040EAC10028600DE0C8F800A0FFF792FDCD
:101ED000064604E0FFF78EFD801B02281FD8286805
:101EE0008007F7D42078000722D5864F874861699C
:101EF000703771B101210160FFF77CFD064604E0F7
:101F0000FFF778FD801B022809D838688007F7D5CD
:101F10000EE0C0F800A0FFF76DFD064605E082E088
:101F2000FFF768FD801B02287DD838688007F7D44A
:101F30002078400768D5DFF8CCB100270BF13C0BC7
:101F4000DBF80000C0000BD4DBF8001041F080513A
:101F5000CBF80010DBF80000012700F08050009063
:101F60006B4E3068C00510D4306840F4807030602B
:101F7000FFF740FD009005E0FFF73CFD0099401A97
:101F8000022850D83068C005F6D55E4EA0686C3681
:101F900001280FD00528306810D020F001003060F3
:101FA000306820F004003060A068B8B1FFF722FD6F
:101FB00000900FE0306840F00100F4E740F00400CA
:101FC0003060F7E7FFF716FD0099411A41F28830BB
:101FD000814266D830688007F4D50EE0FFF70AFD2D
:101FE000009007E0FFF706FD0099411A41F28830A2
:101FF000814256D830688007F4D42FB1DBF8001046
:1020000021F08051CBF80010A069C8B33D49091DEB
:102010000968C1F3810102294AD00228504607D03D
:10202000C8F8600000E03CE0FFF7E4FC04463BE059
:102030004746C8F86000FFF7DDFC064605E000BF34
:10204000FFF7D8FC801B02282BD828688001F7D422
:10205000D4E907010843A16A2E4A490802EB01416D
:10206000626A41EA8211084394F82C1040EA016147
:10207000C9F8001001203866FFF7BCFC044606E0F2
:102080003EE000BFFFF7B6FC001B022809D8286815
:102090008001F7D534E000BFFFF7ACFC001B02283D
:1020A00002D90320BDE8F88F28688001F4D427E026
:1020B0000128F7D0D9F80000E26900F480019142CC
:1020C0001CD1226A00F03F01914217D147F6C0713E
:1020D000626A0140B1EB821F10D1A26A4FF0FF3358
:1020E00000F4403103EB5202B1EB024F06D194F8F9
:1020F0002C1000F07060B0EB016F01D00120D1E72F
:102100000020CFE70438024000004742800E4742DB
:10211000007000400000FFFF7047704710B50400DA
:1021200003D094F83D0010B107E0012010BD00205D
:1021300084F83C00204600F01EF8022084F83D00A0
:10214000211D206800F0E4FE012084F8460084F898
:102150003E0084F83F0084F8400084F8410084F891
:10216000420084F8430084F8440084F8450084F871
:102170003D00002010BD704790F83D10012901D0AE
:1021800001207047022180F83D100168CA6842F0C2
:102190000102CA6000681149884214D0B0F1804F32
:1021A00011D00F4988420ED00E4988420BD00E49FB
:1021B000884208D00D49884205D00D49884202D096
:1021C0000C49884204D1816801F00701062903D037
:1021D000016841F0010101600020704700000140EA
:1021E0000004004000080040000C004000040140D2
:1021F0000040014000180040704770B50446006878
:1022000001694FF00005C943890715D4C168C94366
:10221000890711D4E91E01610120207720688069B7
:102220008007204602D0FFF7E7FF04E000F098F8AF
:10223000204600F096F8257720680169C9434907D0
:1022400017D4C168C943490713D46FF00401016171
:10225000022020772068806910F4407F204602D059
:10226000FFF7CAFF04E000F07BF8204600F079F8A1
:10227000257720680169C943090716D4C168C94395
:10228000090712D46FF0080101610420207720684B
:10229000C0698007204602D0FFF7AEFF04E000F0DF
:1022A0005FF8204600F05DF8257720680169C94392
:1022B000C90617D4C168C943C90613D46FF0100109
:1022C0000161082020772068C06910F4407F204613
:1022D00002D0FFF791FF04E000F042F8204600F042
:1022E00040F8257720680169C943C90708D1C1684A
:1022F000C943C90704D1891E0161204600F032F8A4
:1023000020680169C943090609D4C168C94309069F
:1023100005D46FF0800101612046FFF7FDFE2068C3
:102320000169C943490609D4C168C943490605D4AE
:102330006FF040010161204600F01EF8206801693D
:10234000C94389060BD4C168C943890607D46FF015
:10235000200101612046BDE87040FFF7DEBE70BD80
:102360007047704700680349884201D1FFF748BBB6
:1023700070470000000C00407047704710B50446DD
:102380000068406994F83D10C0F3C010212911D1B4
:1023900080B12068143050E8001F21F0800140E82F
:1023A0000012002AF5D1606B08B1FFF758F82046FB
:1023B00000F0B4FE2068406994F83E10C0F380102D
:1023C000222911D180B12068143050E8001F21F07B
:1023D000400140E80012002AF5D1A06B08B1FFF7D8
:1023E0003EF8204600F073FE002010BD704700004C
:1023F000F8B5016804460868CA684B6910F00F0F09
:102400004FF000055AD003F0010602F490773743ED
:1024100065D0C10705D0D10503D5216C41F001017C
:102420002164410705D5D90703D0216C41F0020191
:102430002164810705D5D90703D0216C41F004013F
:102440002164010707D502F02001314303D0216C3C
:1024500041F008012164216C00293BD0800604D59D
:10246000900602D5204600F067FE20684069216C86
:10247000C0F3801001F00801014320462BD000F08A
:1024800026FE20684069400621D52068143050E8B7
:10249000001F21F0400140E80012002AF5D1A06B96
:1024A000A8B16C490165A06BFFF722F8002811D094
:1024B000A06B016D01B0BDE8F040084783060ED562
:1024C00093060CD52046BDE8F84000F035BE204606
:1024D000FFF78CFFF8BDFFF789FF2564F8BD266B79
:1024E0002023012E79D1C60677D5D60675D5086882
:1024F000486800904869400640D5A16B086840686C
:102500000004000CEAD0A28D8242E7D9E085C869B8
:10251000B0F5807F2DD020680C3050E8001F21F4EA
:10252000807140E80012002AF5D12068143050E88C
:10253000001F21F0010140E80012002AF5D12068B7
:10254000143050E8001F21F0400140E80012002A3A
:10255000F5D184F83E30256320680C3050E8001F28
:1025600021F0100140E80012002AF5D1A06BFEF71F
:1025700076FFA08DE18D401A81B229E0A08DE18D1A
:10258000401A81B2E08D0028A8D00029A6D020688A
:102590000C3050E8002F22F4907240E80026002E04
:1025A000F5D12068143050E8002F22F0010240E8F5
:1025B0000026002EF5D184F83E30256320680C30CB
:1025C00050E8002F22F0100240E80023002BF5D144
:1025D0002046FFF7D2FEF8BDFFE705062BD515060E
:1025E00029D594F83D002128F5D1A068B0F5805F89
:1025F00001D12069B0B1206A411C216221680078B4
:102600004860E08C401E0004000CE084E3D12068A8
:10261000C16821F08001C1602068C16841F04001BB
:10262000C160D8E7206A0088C0F308004860206ACB
:10263000801C2062E5E74006CDD55006CBD5CA68A0
:10264000204622F04002CA6084F83D3000F005F9CF
:10265000C1E70000D92F000870B5040004D094F839
:102660003D00002510B106E0012070BD84F83C500B
:10267000204600F023F8242084F83D002068C1683B
:1026800021F40051C160204600F0B6FD20680169C8
:1026900021F4904101612068416921F02A014161E2
:1026A0002068C16841F40051C1602564202084F88D
:1026B0003D0084F83E00002070BD00002DE9F04F81
:1026C00087B0064614216846FDF724FE4E4B31685C
:1026D00000244E480225032207274FF000694FF4DB
:1026E000806A4FF4807B99424BD1484914310B6882
:1026F00043F010030B60096801F0100105910168B7
:1027000041F002010160016801F0020105910168D8
:1027100041F0010101600068CDE9024200F00100D2
:1027200005908020CDE90005904669460497384819
:10273000FFF762F82802CDE90005CDE902486946B5
:1027400004973448FFF758F8344D33482860C5E9FA
:102750000194C5E9034A6C61C5E9064B4FF440306A
:10276000C5E908042846FEF7A5FF08B1FEF751FAAF
:10277000B563002205212520AE63FFF7D9F9252096
:102780003CE0274B99423BD1204910310B6843F480
:1027900080230B60096801F480210591016841F0F4
:1027A000040101600068CDE9024200F004000590D8
:1027B0004FF44060CDE90005694604971948FFF7DA
:1027C0001BF8164D184860352860C5E90194C5E925
:1027D000034A6C61C5E9064B4FF40030C5E90804B3
:1027E0002846FEF767FF08B1FEF713FAB56300222B
:1027F00005212720AE63FFF79BF92720FFF78AF911
:1028000007B0BDE8F08F00000010014030380240F2
:102810000004024000000240406402408C0200209C
:1028200000480040000802402860024090F83E3016
:10283000202B0ED159B152B190F83C30012B08D069
:10284000012380F83C300023036300F05BBD0120CE
:10285000704702207047704770477047FEE70000DE
:102860007CB52B49086800682A4EC043C2062A4C32
:102870004FF000004FF080551ED4009008680168AA
:10288000406801902248FFF779FD244800684068BD
:102890006060C0F12400A060122803D16946E0689E
:1028A00002F067F824221E4919482BE03560BFF377
:1028B0004F8FBFF36F8F7CBD1A490A681268D243ED
:1028C000D206F8D400900868016840680190154865
:1028D000FFF754FD14480068406880B22080C0F1C2
:1028E000240080B26080212809D10D482430007A6C
:1028F000012804D10D486946006802F03AF8242204
:102900000B490848FFF792FF00980028CED17CBD04
:102910004802002004ED00E098000020EC020020B6
:10292000684C0020040200208C02002010010020CE
:102930002F4D00202DE9F041DFF8D080344E0025E6
:102940002DED048B9FED338B05EB450000EBC500AF
:102950003044C178552950D10179522902D05329E8
:102960004BD125E050F8052FC8F80420274F4068C8
:1029700000249FED2A9B3F1DC8F8080037F914007A
:10298000FDF745FDB0EE481AF0EE681A53EC112B36
:10299000FDF7CBFC53EC192BFDF7C7FCFDF767FDEA
:1029A00006EB8401641CE4B20864032CE6D324E043
:1029B00050F8052FC8F80C20144F406800249FEDF4
:1029C000199B0C37C8F8100037F91400FDF71FFDEC
:1029D000B0EE481AF0EE681A53EC112BFDF7A5FC87
:1029E00053EC192BFDF7A1FCFDF741FD06EB84012B
:1029F000641CE4B28862032CE6D36D1CEDB2042D96
:102A0000A2D3BDEC048BBDE8F081000010010020D2
:102A10002C4D0020000000000000003F00000000DE
:102A200000409F4000000000008066400F4810B545
:102A30000D4901600621416000214FF400328160A0
:102A4000C0E90312120142610176012242768176C9
:102A5000C17602774177FEF74EFB002803D0BDE830
:102A60001040FEF7D6B810BD00640040B40100204D
:102A70000F4810B50D4901600621416000214FF457
:102A800000328160C0E90312120142610176012225
:102A900042768176C17602774177FEF72CFB0028DB
:102AA00003D0BDE81040FEF7B4B810BD0068004088
:102AB000DC010020114808B5016841F400110160F3
:102AC000016801F400110091016841F48001016086
:102AD0000068002200F48000009005210C20FFF720
:102AE00027F80C20FFF716F8002205213A20FFF7FF
:102AF0001FF8BDE808403A20FFF70CB83038024014
:102B00007CB500F069F900F05BF900F041FD00F0E0
:102B100059FC1A4A00211A4800F0C6FD1949002440
:102B200018250860CDE900544FF4807623463246DC
:102B300015A1174802F0FEF8CDE9005400237200F9
:102B400014A1184802F0F6F8CDE9005400238022C1
:102B500015A1184802F0EEF8CDE9005400238022B8
:102B600015A1194802F0E6F8CDE9005400233246D9
:102B700016A1194802F0DEF87CBD0000985200084A
:102B8000152E00080000002052435F5461736B0053
:102B900041350008636861696573735F5461736BE5
:102BA00000000000413400087961775F7461736B45
:102BB00000000000C95100086A793930315F726540
:102BC00061645F5461737400A935000841726D5FE0
:102BD00054617374000000000107000870B586B0EE
:102BE00014216846FDF796FB1E480024016841F059
:102BF00002010160016801F002010591016841F0E4
:102C000001010160016801F001010591016841F0D5
:102C100008010160016801F008010591016841F0B7
:102C200004010160016801F004010591016841F0AF
:102C30008001016000680C4E00F080004FF4E05508
:102C40000590002229463046FEF7CEFE0120009571
:102C5000CDE90104694630460394FEF7CDFD06B088
:102C600070BD000030380240001C02400C4810B516
:102C70000A4901604FF4E1314160002181600C227A
:102C8000C160C0E904128161C161FFF7E5FC002861
:102C900003D0BDE81040FDF7BCBF10BD00100140DF
:102CA000040200200E4810B50C4901600D49416036
:102CB0004FF48051816000214FF48062C0E903121B
:102CC0000C22C0E90521C161FFF7C6FC002803D032
:102CD000BDE81040FDF79DBF10BD0000004800405A
:102CE00048020020A0860100FEE7FEE7511A09B263
:102CF0000180B0F902208A1A01EE102AB8EEC11A3A
:102D000021EE001A00EE101AB8EEC00A00EE801A8A
:102D1000BDEEC10A10EE102AC28041800189114423
:102D200009B24FF4FA520181914202DC52429142BF
:102D300000DA0281B0F908007047000010B5511A9E
:102D400009B20180B0F902208B1A01EE903AB0F975
:102D500004305442F8EEE11A0B4403EB440342F210
:102D6000107461EE801A00EE101AB8EEC00A40EE40
:102D7000801A00EE103AB0F90630B8EEC00A41EE03
:102D8000001A00EE103AB8EEC00A31EE800ABDEE2D
:102D9000C00A10EE103A1BB20381A34200DB04818B
:102DA000B0F90840054B9C4200DC0381B0F90830C3
:102DB000C38082804180184610BD0000F0D8FFFF1C
:102DC00010B500220821142001F02BFC01490860F5
:102DD00010BD0000240100200B4808B50068016800
:102DE00041680091C16841F01001C1602422074987
:102DF0000548FFF71BFD03220021012001F011FC13
:102E00000349C86008BD000048020020684C00204B
:102E1000980000200A4C4FF400664FF4FA75012226
:102E200031462046FEF7E0FD284601F031FA002247
:102E300031462046FEF7D8FD284601F029FAEEE794
:102E4000001C024010B54FF0E020006901F0CAFFFD
:102E5000012803D0BDE8104001F0C2BB10BD000046
:102E600030B593B030216846FDF754FA14210CA810
:102E7000FDF750FA1D480025016841F080510160BE
:102E8000006800F0805011901948016841F48041B9
:102E900001600068022400F480401190012000903D
:102EA000000401908001CDE9064006200890A8208A
:102EB000CDE9090404200B906846FEF777FF08B1BE
:102EC00072B6FEE70CA90F2081E831004FF4A05044
:102ED0000F904FF48050109005210CA8FEF75AFE79
:102EE000002801D072B6FEE713B030BD4038024072
:102EF000007000400248016841F4700101607047B1
:102F000088ED00E00148FFF778B900004C0300208D
:102F1000F0B50268254C264D264E274F274B4FF023
:102F2000804CA04209D0604507D0A84205D0B042ED
:102F300003D0B84201D0984204D122F0700E4A6802
:102F400042EA0E02A0421BD0604519D0A84217D019
:102F5000B04215D0B84213D0984211D0184DA842B3
:102F60000ED0184DA8420BD0174DA84208D0174DCF
:102F7000A84205D0164DA84202D0164DA84203D152
:102F800022F44075CA682A434D6922F080022A4320
:102F900002608A68C2620A688262A04201D09842D6
:102FA00001D10969016301214161F0BD00000140C7
:102FB0000004004000080040000C004000040140F4
:102FC000004001400044014000480140001800401A
:102FD000001C00400020004010B5806B0021C1851E
:102FE000C184FFF703FA10BD70B5846B2068406997
:102FF00094F83D10C0F3C0100025212904D118B168
:10300000E584204600F08AF82068406994F83E1074
:10301000C0F38010222904D118B1E585204600F0C4
:1030200056F8206C40F0100020642046FFF7DEF9CF
:1030300070BD10B50146806B09680968C9052FD4B9
:103040000021C18501680C3151E8002F22F4807203
:1030500041E80023002BF5D10168143151E8002F1D
:1030600022F0010241E80023002BF5D10168143160
:1030700051E8002F22F0400241E80023002BF5D157
:10308000202180F83E10016B012909D101680C3123
:1030900051E8002F22F0100241E80023002BF5D167
:1030A000016B012902D0FFF7D6FB10BD818DFFF720
:1030B00064F910BD10B5806B016B012902D0FFF7D8
:1030C000CBFB10BD818D4908FFF757F910BD016892
:1030D0000C3151E8002F22F4907241E80023002BBC
:1030E000F5D10168143151E8002F22F0010241E8C6
:1030F0000023002BF5D1016B012909D101680C31A6
:1031000051E8002F22F0100241E80023002BF5D1F6
:10311000202180F83E1000210163704701680C31C6
:1031200051E8002F22F0C00241E80023002BF5D126
:10313000202180F83D10704708B590F83E102229F4
:1031400001D0022008BD82684FF480539A4201D119
:10315000016921B1816A9A421BD04AB10AE0026832
:10316000816A5268C2F308020A80816A891C08E0F9
:10317000026972B10268526802F07F020A70816AC5
:10318000491C8162C18D491E0904090CC18503D007
:1031900019E002685268F1E70168CA6822F020026B
:1031A000CA600168CA6822F48072CA6001684A690C
:1031B00022F001024A61202180F83E10016B0129B2
:1031C00003D0FFF748FB002008BD00210163016820
:1031D0000C3151E8002F22F0100241E80023002BAF
:1031E000F5D101680A68D20602D50A6849680091DB
:1031F000818DFFF7C2F8E6E770B504460068016903
:10320000E26821F44051114301612169A068E2693B
:1032100008436169114308432168CA6849F20C6395
:103220009A430243CA6020684169A26921F440714F
:103230001143416131492068884202D030498842B7
:1032400002D1FEF771FD01E0FEF75EFDE2690023A9
:10325000192164253226B2F5004F626828D0A0FB00
:103260000101930F9200FDF70BF80146B0FBF5F05A
:103270006FF01802504301EB800006EB0010B0FB2A
:10328000F5F000F0F002B1FBF5F002EB0012B1FB3B
:10329000F5F06FF01803584301EB800006EB0010C7
:1032A000B0FBF5F000F00F0021681044886070BD9D
:1032B000A0FB010192185B41FCF7E2FF0146B0FB65
:1032C000F5F00201B1FBF5F06FF01803584301EB84
:1032D000800006EBC000B0FBF5F000F0F80002EB58
:1032E0004002B1FBF5F0584301EB800006EBC00053
:1032F000B0FBF5F000F00700D6E700000010014039
:103300000014014038B581628285002513460446C9
:103310000564222084F83E00A26B1C48D063A26B97
:103320001B481064A26B1B48D064A06B0A4605655D
:103330002168A06B091DFEF727FA20680168406824
:10334000009084F83C50206948B120680C3050E867
:10335000001F41F4807140E80012002AF5D1206876
:10336000143050E8001F41F0010140E80012002A2B
:10337000F5D12068143050E8001F41F0400140E8CA
:103380000012002AF5D1002038BD000033300008BB
:10339000B5300008E92F000810B5FFF761FABDE865
:1033A00010400148FFF724B80402002010B5FFF7D1
:1033B00057FABDE810400148FFF71AB8480200204C
:1033C000FEE700000B4808B50068016841680091FD
:1033D000C16841F01001C160242207490548FFF788
:1033E00025FA03220021012001F01BF9034908609E
:1033F00008BD0000040200202F4D00201001002015
:103400000907090E002804DB00F1E02080F8001411
:10341000704700F00F0000F1E02080F8141D7047A5
:1034200002E008C8121F08C1002AFAD1704770478D
:10343000002001E001C1121F002AFBD170470000EB
:103440002DED028B012001F0E1F8364CE06040F2F6
:10345000651000F01DFF344F04F1100531490022C2
:103460001031386801F0D4FA2878032856D16988D9
:10347000AA88E88853181E1826808E1A0644C31A94
:10348000511A66800844A38000B2E08000F0C4F8BE
:10349000B4F9040000F0C0F8B4F9020000F0BCF880
:1034A000B4F9000000F0B8F84FF0FF31E06801F027
:1034B0004BFB1E489FED1E8ADFED1E8AB0F90210FD
:1034C000B0EE481AF0EE680AB2EE000AB4F908202D
:1034D0001948FFF733FC184EB0EE481A1436F0EED8
:1034E000680A70801548B2EE000AB0F9021020890F
:1034F000404202B2A6F10A00FFF720FCB08001466C
:10350000B6F90830B6F90620B6F90200FDF768FAF8
:1035100000231A461946E06801F01CF9052000F066
:10352000B7FE9BE73001002024010020D4000020DA
:1035300033331340CDCC4C3E784D0020DC000020CE
:10354000124C104E104D4FF0FF38271F4146306887
:1035500001F0FAFA0128F9D1FDF768FA287A20700B
:10356000687A6070288860806888A080A888E08079
:1035700000231A460549386801F0ECF8142000F0E1
:1035800087FEE3E7A40000208C4C002028010020E7
:1035900010B5002218210A2001F043F80149086003
:1035A00010BD000078010020174E184D184C194F1F
:1035B0004FF0FF384146306801F0C6FA0128F9D1D2
:1035C000FFF7B8F995ED0A0A002384ED000A95ED9E
:1035D0000B0A1A4684ED010A95ED0C0A0C4984ED9C
:1035E000020A95ED100A84ED030A95ED110A84EDA7
:1035F000040A95ED120A84ED050A386801F0AAF86C
:10360000142000F045FED5E7100100202C4D0020CD
:10361000BC4D0020780100207047FEF7F9F9FFF754
:103620001FFCFFF7DBFAFFF745FAFFF73BFBFFF75D
:10363000FDF9FFF71BFBFFF71BFAFDF77FF900F021
:1036400005F8FFF75DFA00F013F8FEE7EFF30580E9
:1036500010B16FF0050070470448016811B14FF0D8
:10366000FF30704701210160002070476800002092
:1036700010B5EFF3058010B16FF0050010BD0848DC
:103680000168012902D04FF0FF3010BD054A00212A
:1036900082F8141D0221016000F0AAFE002010BD76
:1036A000680000200BE000E02DE9FF410B464FF0E1
:1036B0000005EFF30581039549BB40B3802718212E
:1036C00000244AB3166806B1344696691EB13146E5
:1036D000761E382E02D21679F60703D0002004B0E9
:1036E000BDE8F081566906B1B708D2F808C0BCF150
:1036F000000F0DD0D5685C2D18D312693AB136B1E0
:103700008DE806103A46214601F041FB03900DE09A
:10371000D6685EB912694AB903AACDE90012BAB2F5
:10372000214601F007FB012800D003950398D6E756
:103730002DE9F041134C0F460546E6682068001D50
:1037400000F073FC681C07D137B12168BDE8F04177
:103750000D48091D00F0B8BC20683544B5424560ED
:10376000216805D2A06BBDE8F041091D00F094BCB2
:10377000606B091D00F090FCA06A854200D2A56232
:10378000BDE8F08118000020840800202DE9F041F8
:10379000054600F0A5FC2D4CA068401CA0602068E8
:1037A0002B4F10B1606930B32BE02560A068012871
:1037B00027D1002606EB860007EB800000F05EFCB8
:1037C000761C382EF6D3234800F058FC21481430DC
:1037D00000F054FC1F48283000F050FC1D483C30DD
:1037E00000F04CFC1B48503000F048FC1948606366
:1037F0001430A06305E02068E96AC06A884200D8F6
:103800002560606A401C60626864E86A21698842D9
:1038100000D9206100EB800007EB8000291D00F03B
:1038200053FC00F07DFC606900280CD02068E96A38
:10383000C06A884207D208494FF080500860BFF341
:103840004F8FBFF36F8FBDE8F0810000180000209C
:10385000D40300203408002004ED00E038B500F067
:103860003FFC104C2068C8B90F4800F007FC0E4818
:10387000143000F003FC0C48E060143020610A4B67
:103880000020F03B009003F1500210210A2000F0CC
:10389000E9FE206010B105A100F0C4FCBDE838408D
:1038A00000F03EBC5400002088090020546D725185
:1038B0000000000030B4026C0B46002A0BD0C16837
:1038C0001144C1608468A14201D30168C16030BC69
:1038D0001846FCF706BD30BC70472DE9F041856BFA
:1038E000174604460026026C82B1C7B1E068FCF7B7
:1038F000F8FCE168206C091AE1602268914202D26A
:10390000A168081AE060022F16D017E02068A8B955
:10391000A06801F0DFFA06460020A0600EE06068B3
:10392000FCF7DFFC216C606808446060A168884295
:1039300004D32068606001E005B16D1E6D1CA563B5
:103940003046BDE8F08110B5044690F8590058B1F2
:1039500001280CD002280FD0502080F31188BFF32B
:103960004F8FBFF36F8FFEE7206B00F0EDFB20461B
:10397000BDE8104000F0E8BB10BD000010484FF457
:103980007051420706D0C01D0D4920F00700411AB2
:10399000C1F570510B4A00230144C2E90003083904
:1039A000183A21F0070111604B600B600B1AC0E957
:1039B000001393604FF00040536050617047000067
:1039C0006810002084000020144E154CA6F29C477D
:1039D0004FF08058DFF84C9012E000BF00F080FB01
:1039E000F068C568281D00F020FBA068401EA0609C
:1039F0006068401E606000F093FB2846FFF7A3FF5D
:103A000060680028EAD138680128F9D9C9F800802F
:103A1000BFF34F8FBFF36F8FF2E7000070080020F5
:103A20001800002004ED00E0002807D0002181608C
:103A300001600B460A46C16000F08CBE7047000072
:103A400070B51D46049C51B1C4F80020C4E90F01B3
:103A50000121204600F03AFE84F84C5070BD2460ED
:103A6000F4E700002DE9F05F8846DDE90B94154688
:103A7000834691009A460A9EA522206BFCF743FCE0
:103A80006FF00301206B01EB8501084420F007076C
:103A9000780707D0502080F31188BFF34F8FBFF312
:103AA0006F8FFEE70025B8F1000F0FD05FF0000028
:103AB000221818F8001082F8341018F8001011B10C
:103AC000401C1028F4D384F8435001E084F83450AB
:103AD000382E00D33726E662C4E91365201D00F0B6
:103AE000D8FA04F1180000F0D4FA2461C6F13800C5
:103AF0006462A061656584F858505246594638465C
:103B000000F066FA2060B9F1000F01D0C9F800405A
:103B1000BDE8F09F30B5114900E011460A688242C5
:103B2000FBD34B685C18844203D14068184448605A
:103B3000084643681C18944209D1084C183C246874
:103B4000A24209D052681A4442600A6812680260B0
:103B5000814200D0086030BD0460F9E78400002095
:103B600070B5002441600B4D0061914206D8D11A16
:103B70008269914206D2011D286907E09A4203D268
:103B8000994201D3012403E0011DE86800F084FAA2
:103B9000204670BD5400002010B5044600F0A0FA85
:103BA000A06B28B15FF0000400F0BAFA204610BD07
:103BB0000124F9E730B589B03C4D6EE00498002847
:103BC00006DADDE90601059A90470498002864DBCF
:103BD000069C606910B1201D00F027FA03A800F0D0
:103BE000D7F8024604980A2857D2DFE800F0050506
:103BF000052D334A05052D3394F8280040F00100C7
:103C000084F828000599A069059B01442046FFF728
:103C1000A7FF68B3216A2046884794F82800400728
:103C20003BD5002000900598A16900234218194651
:103C3000204601F095FAD8B9502080F31188BFF3DF
:103C40004F8FBFF36F8FFEE714F8280F20F00100AD
:103C5000207022E094F8280040F0010084F8280049
:103C60000598A06128B1811813462046FFF778FF18
:103C700013E0502080F31188BFF34F8FBFF36F8F95
:103C8000FEE794F82800810703D4204600F05CFA90
:103C900003E020F0010084F82800002204A928682D
:103CA00000F0B6FE002889D109B030BD54000020D4
:103CB0002DE9FC410F46054600F0DEFB01A800F0AF
:103CC00067F80446019818B101F0B8F9BDE8FC8125
:103CD000254EAFB130690068D0B30027291B3A46A2
:103CE000306800F0B3FA01F0A9F90028EED11F49BD
:103CF0004FF080500860BFF34F8FBFF36F8FE5E741
:103D0000A542EBD801F09AF9F0682746C068C4686C
:103D1000201D00F08AF994F82800410719D5A06900
:103D20002B4641193A462046FFF71AFFA8B100205A
:103D30000346014600902A46204601F011FA60B978
:103D4000502080F31188BFF34F8FBFF36F8FFEE7D2
:103D500007E020F0010084F82800216A2046884707
:103D6000B4E70127BAE700005400002004ED00E0AA
:103D70000648416B096829B1416BC968C96849683F
:103D8000816270474FF0FF31FAE700001800002011
:103D900070B5054601F034F8064E0446B06884421A
:103DA00003D200F009F8012000E00020286020463E
:103DB000B46070BD54000020F8B5194D20E0C06813
:103DC000C4680668201D00F030F9216A2046884743
:103DD00094F82800400713D5A0693044B04206D9B2
:103DE00024616060211DE86800F056F908E00020B9
:103DF0000346014600903246204601F0B1F938B141
:103E0000E86801680029DAD12969C5E90310F8BD1D
:103E1000502080F31188BFF34F8FBFF36F8FFEE701
:103E20005400002008484068401C4FF0500080F3C8
:103E3000118804D0BFF34F8FBFF36F8FFEE7BFF33E
:103E40004F8FBFF36F8FFEE78C000020074CE068B8
:103E5000016841B1C0680021D0F80000FFF728FFD9
:103E6000FFF7A8FEF3E701210020F7E75400002048
:103E70002DE9F041044600F033F994F9455004F17E
:103E8000240609E0606A48B1304601F09FF808B1A5
:103E900000F02CFA6D1E6DB2002DF3DC4FF0FF36F2
:103EA00084F8456000F03CF900F01AF994F94450A8
:103EB00004F1100709E0206948B1384601F086F89E
:103EC00008B100F013FA6D1E6DB2002DF3DC84F81A
:103ED0004460BDE8F04100F023B900002DE9F04155
:103EE0000546002700F0C8FA324E306808B9FFF7DF
:103EF00045FD706905424ED1C5B3083568070ED03F
:103F000005F00700C0F108000544680707D05020FD
:103F100080F31188BFF34F8FBFF36F8FFEE72DB390
:103F20007068854237D82348183001460C6801E094
:103F300020460C466168A94202D221680029F7D1C7
:103F400031688C4227D007682168016060680837B3
:103F5000411B10290FD96019420708D0502080F367
:103F60001188BFF34F8FBFF36F8FFEE713E04160FF
:103F70006560FFF7CFFD61687068401A7060B268D5
:103F8000904200D2B060706901430020C4E9000192
:103F9000F068401CF06001F051F8780707D050201D
:103FA00080F31188BFF34F8FBFF36F8FFEE7384662
:103FB000BDE8F0816C0000200449086818B1086869
:103FC000026D521C0265086870470000180000204E
:103FD00010B5031F4FF080741C601B1F21F00101FE
:103FE0001960191F044B0B6014390A60091F6FF028
:103FF000020244380A6010BD253E0008B0F90830BE
:10400000B1F900209B1AB3F5805F02DD02F5005282
:104010000A80B0F90820B1F90000121A12F5805F89
:1040200002DAA0F5005008807047D0E9013201693A
:104030009A60D0E901235A604A68824201D18268BD
:104040004A60002202610868401E086008687047E4
:10405000034B036003F15C00086080201060704730
:10406000B0090020044B036003F15C0008604FF4CA
:1040700080701060704700000C0C002000F10801F7
:104080004FF0FF32C0E90112C160016100210160FF
:10409000704700210161704730B50B685A1C02D08F
:1040A00000F1080202E0026904E022465468256833
:1040B0009D42FAD953684B6099608A6051600861EB
:1040C0000168491C016030BD42684A6093688B609A
:1040D00093685960916008610168491C01607047EC
:1040E000502080F31188BFF34F8FBFF36F8F0A49C1
:1040F0004868401C486001280CD10848006810F04E
:10410000FF0F07D0502080F31188BFF34F8FBFF30C
:104110006F8FFEE7704700008C00002004ED00E088
:104120000849486828B1401E486001D180F31188D1
:104130007047502080F31188BFF34F8FBFF36F8F0C
:10414000FEE700008C00002070B500282AD0164D34
:10415000A0F1080460686969084207D1502080F323
:104160001188BFF34F8FBFF36F8FFEE722683AB11C
:10417000502080F31188BFF34F8FBFF36F8FFEE79E
:104180008843606000F078F9606869680844686096
:104190002046FFF7BFFC2869401C2861BDE870403D
:1041A00000F04CBF70BD00006C0000204FF0E0201C
:1041B00000210161816105494FF47A720968B1FB00
:1041C000F2F1491E4161072101617047140000208E
:1041D00010B5FCF73FF8114910280ED300F1E0208C
:1041E00090F8F0030A78904207D2502080F31188AB
:1041F000BFF34F8FBFF36F8FFEE7094800688968F0
:1042000000F4E060884207D9502080F31188BFF3A2
:104210004F8FBFF36F8FFEE710BD00008C000020B2
:104220000CED00E010B5084B002200BF53F83240FF
:104230001CB1521C082AF9D310BD43F8321003EB0D
:10424000C201486010BD00009403002070B51546FF
:104250000E460446FFF744FF94F944100020491C21
:1042600001D184F8440094F94510491C01D184F827
:104270004500FFF755FFA06B28B92A46314604F1E7
:10428000240000F051F82046BDE87040FFF7F0BD73
:1042900010B5020014D00F48006B38B1502080F3E5
:1042A0001188BFF34F8FBFF36F8FFEE700F0E4F884
:1042B00000211046FFF73CFA00F0C0FE002807D1AD
:1042C00005494FF080500860BFF34F8FBFF36F8FE9
:1042D00010BD00001800002004ED00E002490A6A49
:1042E0000260C96841607047180000200149012040
:1042F000C86170471800002010B50C4650B109493C
:1043000009681831FFF7C8FE2046BDE810400121BA
:10431000FFF70EBA502080F31188BFF34F8FBFF321
:104320006F8FFEE71800002070B514460D4668B187
:104330000A4909681831FFF7C7FE0CB14FF0FF3585
:1043400021462846BDE87040FFF7F2B9502080F3BF
:104350001188BFF34F8FBFF36F8FFEE71800002067
:1043600070B504003ED0226DA2B1E06C884200D34B
:104370000146E06A884235D0012A33D11A4D2A68B5
:1043800094420FD1502080F31188BFF34F8FBFF3B9
:104390006F8FFEE7502080F31188BFF34F8FBFF37C
:1043A0006F8FFEE7E162A269002A02DBC1F13801EA
:1043B000A1610E4E00EB8000616906EB8000814236
:1043C00010D1201DFFF731FEE06A2969884200D92B
:1043D000286100EB800006EB8000211DBDE87040E5
:1043E000FFF772BE70BD000018000020D40300204B
:1043F00030B587B00024039405AA04A903A8049447
:10440000FFF726FEDDE903010094CDE9011000234A
:1044100015A11748059A00F0BAFC164D0028E8626D
:104420001FD000F06DFE012809D0401C19D150208A
:1044300080F31188BFF34F8FBFF36F8FFEE75020DB
:1044400080F31188BFF34F8FBFF36F8F4FF0FF30B2
:10445000A86201206861EC6007B0BDE8304000F060
:1044600045B807B030BD000049444C45000000008D
:10447000C9390008180000200248016B491C01637B
:104480007047000018000020164810B5016B11B1EC
:104490000121C16110BD0021C1610169124A01E021
:1044A000B9B1491E01EB810352F82330002BF7D03C
:1044B00001EB810302EB830202F1080453685B689D
:1044C0005360A34201D15B685360DA680260016106
:1044D00010BD502080F31188BFF34F8FBFF36F8F53
:1044E000FEE7000018000020D40300201CB5374868
:1044F0000168374A914207D1502080F31188BFF3F9
:104500004F8FBFF36F8FFEE700683149491E884225
:1045100007D1502080F31188BFF34F8FBFF36F8F07
:10452000FEE72C4908780190FF20087008788DF884
:1045300000009DF800009DF8002000F0F00090427F
:1045400007D0502080F31188BFF34F8FBFF36F8FD8
:10455000FEE79DF80000204C00F05000207007207E
:10456000A06005E09DF8002052008DF80020401E5C
:104570009DF800201206F5D4A060032807D0502033
:1045800080F31188BFF34F8FBFF36F8FFEE74FF4B7
:104590004070A060019808700C482030016841F418
:1045A00070010160016841F070410160FFF7FEFD9C
:1045B00000206060FBF716FE0848016841F04041AA
:1045C0000160FBF7FBFD00201CBD000000ED00E0DA
:1045D00071C20F4100E400E08C00002034EF00E0E5
:1045E00010B5502080F31188BFF34F8FBFF36F8F4A
:1045F00000F00CFC18B104494FF080500860002016
:1046000080F3118810BD000004ED00E010B50246F3
:104610000021012000F005F80446FFF705FA2046C6
:1046200010BDF8B517460E46050013D005FB06F081
:104630005030FFF753FC04000AD0002084F84600F5
:1046400004F150023B46314628460094FFF7F8F942
:104650002046F8BD502080F31188BFF34F8FBFF381
:104660006F8FFEE738B5049D18B153B1CAB181B15F
:1046700020E0502080F31188BFF34F8FBFF36F8F7E
:10468000FEE7502080F31188BFF34F8FBFF36F8F89
:10469000FEE7502080F31188BFF34F8FBFF36F8F79
:1046A000FEE739B1502080F31188BFF34F8FBFF37D
:1046B0006F8FFEE750241C46012384F846302B46BA
:1046C0000094FFF7BDF9204638BD000070B50D46D7
:1046D000040025D0FFF704FDD4E90F20216802FB78
:1046E0000011A1600021A163216861600A46D4E93C
:1046F0000F01401E00FB0121E16021464FF0FF3019
:1047000001F8440F487004F110008DB1FFF7B6FCBA
:1047100004F12400FFF7B2FCFFF702FD012070BD99
:10472000502080F31188BFF34F8FBFF36F8FFEE7E8
:1047300021690029F0D000F049FC0028ECD00449A0
:104740004FF080500860BFF34F8FBFF36F8FE3E7E8
:1047500004ED00E02DE9FF4782B01D468A464FF088
:104760000008040003D0BAF1000F08D011E0502077
:1047700080F31188BFF34F8FBFF36F8FFEE7206C7C
:1047800038B1502080F31188BFF34F8FBFF36F8F84
:10479000FEE7022D0AD1E06B012807D0502080F3FC
:1047A0001188BFF34F8FBFF36F8FFEE700F01AFB46
:1047B0003F4F4FF000094FF0805648B9049838B188
:1047C000502080F31188BFF34F8FBFF36F8FFEE748
:1047D000FFF786FCA06BE16B884207D3022D05D062
:1047E0000498D0B1B8F1000F1AD01EE02A46514605
:1047F0002046FFF772F8616A19B104F1240000F055
:10480000E5FB20B13E60BFF34F8FBFF36F8FFFF723
:1048100087FC012006B0BDE8F087FFF781FC22E0AD
:104820006846FFF75BFD4FF00108FFF779FCFFF7E3
:1048300023FEFFF755FC94F94400401C01D184F895
:10484000449094F94500401C01D184F84590FFF74D
:1048500067FC04A9684600F033FA30B12046FFF740
:1048600007FB00F0EBFB0020D4E7FFF739FCA06B5F
:10487000E16B884213D1FFF753FC04F11000049957
:10488000FFF73AFD2046FFF7F3FA00F0D7FB0028C8
:104890009ED13E60BFF34F8FBFF36F8F98E7FFF756
:1048A0003FFC2046FFF7E4FA00F0C8FB90E7000069
:1048B00004ED00E02DE9F0471F46904689460400CC
:1048C00003D0B9F1000F08D011E0502080F3118817
:1048D000BFF34F8FBFF36F8FFEE7206C38B15020CE
:1048E00080F31188BFF34F8FBFF36F8FFEE7022F66
:1048F0000AD1E06B012807D0502080F31188BFF364
:104900004F8FBFF36F8FFEE7FFF762FC5020EFF38E
:10491000118680F31188BFF34F8FBFF36F8FA06BA9
:10492000E16B884206D3022F04D0002086F3118861
:10493000BDE8F08794F94550A06B3A4649462046B9
:10494000FEF7CBFF681C04D06D1C84F84550012095
:10495000ECE7606A0028FAD004F1240000F036FB8E
:104960000028F4D0B8F1000FF1D00121C8F80010F0
:10497000EDE770B50E46040009D0206C78B15020E8
:1049800080F31188BFF34F8FBFF36F8FFEE7502086
:1049900080F31188BFF34F8FBFF36F8FFEE720685E
:1049A00048B9A06838B1502080F31188BFF34F8F09
:1049B000BFF36F8FFEE7FFF70BFC5020EFF311857D
:1049C00080F31188BFF34F8FBFF36F8FA16BE06B44
:1049D000884218D994F94500491CA163411C04D0B0
:1049E000401C84F8450001200EE0606A0028FAD0DF
:1049F00004F1240000F0EAFA0028F4D0002EF2D0EE
:104A000001203060EFE7002085F3118870BD0000C1
:104A10002DE9F747002683B08A46040003D0BAF197
:104A2000000F08D011E0502080F31188BFF34F8FA2
:104A3000BFF36F8FFEE7206C38B1502080F31188F0
:104A4000BFF34F8FBFF36F8FFEE700F0CBF9DFF8B6
:104A5000F4804FF000094FF0805748B9059838B1FD
:104A6000502080F31188BFF34F8FBFF36F8FFEE7A5
:104A7000FFF736FBA56BC5B151462046FEF71AFF7E
:104A80006D1EA563206950B104F1100000F09EFA7C
:104A900028B1C8F80070BFF34F8FBFF36F8FFFF7D7
:104AA0003FFB012006B0BDE8F087059808B11EB1B4
:104AB00006E0FFF735FB27E06846FFF70FFC01260D
:104AC000FFF72EFBFFF7D8FCFFF70AFB94F9440031
:104AD000401C01D184F8449094F94500401C01D158
:104AE00084F84590FFF71CFB05A9684600F0E8F83C
:104AF000002820460AD0FFF7BBF900F09FFA2046B5
:104B0000FFF74AF80028B3D00020CBE7FFF744F8BE
:104B100090B104F124000599FFF7EEFB2046FFF762
:104B2000A7F900F08BFA0028A2D1C8F80070BFF3F3
:104B30004F8FBFF36F8F9BE72046FFF799F900F087
:104B40007DFA95E704ED00E02DE9F343002683B0FC
:104B50000400354609D0206C78B1502080F31188CC
:104B6000BFF34F8FBFF36F8FFEE7502080F31188A4
:104B7000BFF34F8FBFF36F8FFEE700F033F9DFF81D
:104B80003C814FF000094FF0805748B9049838B184
:104B9000502080F31188BFF34F8FBFF36F8FFEE774
:104BA000FFF79EFAA06BC8B1401EA063206810B941
:104BB000FFF702FAA060206950B104F1100000F084
:104BC00005FA28B1C8F80070BFF34F8FBFF36F8F9D
:104BD000FFF7A6FA012005B0BDE8F083049808B1FC
:104BE00066B10FE03DB1502080F31188BFF34F8FC5
:104BF000BFF36F8FFEE7FFF793FA5DE06846FFF7BC
:104C00006DFB0126FFF78CFAFFF736FCFFF768FA19
:104C100094F94400401C01D184F8449094F9450073
:104C2000401C01D184F84590FFF77AFA04A9684640
:104C300000F046F80028204612D0FFF719F900F0DE
:104C4000FDF92046FEF7A8FF0028A9D09DB3FFF785
:104C500047FA606A50B3206B0068C0F1380126E063
:104C6000FEF79AFFE0B1206838B9FFF739FAA0687B
:104C700000F070F90546FFF753FA04F12400049997
:104C8000FFF73AFB2046FFF7F3F800F0D7F90028CA
:104C900086D1C8F80070BFF34F8FBFF36F8F7FE7E7
:104CA0002046FFF7E5F800F0C9F979E70021A06890
:104CB000FFF756FB9FE7FFE700208CE704ED00E0DD
:104CC0002DE9F0410C46050011D0C4B1FFF708FAF8
:104CD000174BDA686E682068911B471C17D02F6845
:104CE0001B6A9F4219D0964217D8012410E0502029
:104CF00080F31188BFF34F8FBFF36F8FFEE7502013
:104D000080F31188BFF34F8FBFF36F8FFEE700244E
:104D1000FFF706FA2046BDE8F081884205D9401A1F
:104D200020602846FFF7DAFAF1E700202060DCE790
:104D3000180000202DE9FF5F8346DDE90E879946C4
:104D400016468A469000FFF7C9F805001CD05C2083
:104D5000FFF7C4F8040014D00020256384F859003C
:104D6000CDE90240CDE900874B46324651465846D0
:104D7000FEF778FE2046FEF709FD012004B0BDE8ED
:104D8000F09F2846FFF7E0F94FF0FF30F6E7F0B567
:104D900085B0DDE90B640A9DA6B1DCB15C27009704
:104DA0002663022684F85960002604AFCDE9024646
:104DB000CDE90057FEF756FE2046FEF7E7FC0498C3
:104DC00005B0F0BD502080F31188BFF34F8FBFF3C3
:104DD0006F8FFEE7502080F31188BFF34F8FBFF332
:104DE0006F8FFEE70548416919B1006B18B10020CB
:104DF0007047012070470220704700001800002013
:104E00000148C06870470000180000202DE9F041FB
:104E10002E4C0027206B28B1A069401CA0613846A9
:104E2000BDE8F081E668761CE66013D1606B00682F
:104E300038B1502080F31188BFF34F8FBFF36F8FCD
:104E4000FEE7606BA16B6163A063206A401C206277
:104E5000FEF78EFFA06ADFF87880864209D3606B88
:104E60000068A0B1606BC068C5686868864211D2EE
:104E7000A0622068C06A00EB800158F82100012878
:104E800000D90127E0690028C9D00127C7E74FF002
:104E9000FF30EDE7281DFFF7C8F8A86A18B105F143
:104EA0001800FFF7C2F8E86A2169884200D920613A
:104EB00000EB800108EB8100291DFFF705F9E86A86
:104EC0002168C96A8842CAD30127C8E718000020B0
:104ED000D403002070B504004FF0000133D01B4D07
:104EE0002868844207D0502080F31188BFF34F8F89
:104EF000BFF36F8FFEE7206D38B1401E2065E36C75
:104F0000E26A9A421FD040B11DE0502080F3118820
:104F1000BFF34F8FBFF36F8FFEE7201DFFF785F8BC
:104F2000E06CE062C0F13800A061E06A2969884263
:104F300000D92861064900EB800001EB8000211DAB
:104F4000FFF7C2F80121084670BD000018000020DC
:104F5000D403002070B504004FF000002BD0194D91
:104F6000E16A2A68D26A914226D2A069002804DB4D
:104F70002868C06AC0F13800A061134E01EB8101BE
:104F8000606906EB8101884211D1201DFFF74DF8C1
:104F90002868C06AE0622969884200D9286100EB6C
:104FA000800006EB8000211DFFF78EF802E02868E4
:104FB000C06AE062012070BDE16C2A68D26A914249
:104FC000F8D370BD18000020D403002070B5C0686D
:104FD000C46854B104F118000646FFF726F8144DD2
:104FE000286B50B13146134815E0502080F31188EA
:104FF000BFF34F8FBFF36F8FFEE7201DFFF715F84C
:10500000E06A2969884200D928610B4900EB8000D9
:1050100001EB8000211DFFF757F8E06A2968C96A93
:10502000884202D90120E86170BD002070BD0000F7
:10503000180000205C080020D40300202DE9F04770
:105040002C4D00242746286B38B1FFF749F8286B10
:10505000401E2863286B40B146E0502080F3118841
:10506000BFF34F8FBFF36F8FFEE7A968224E012079
:10507000D1B3A6F5916980463068E0B1F068C468A4
:1050800004F11800FEF7D1FF201DFEF7CEFFE06A05
:105090002969884200D9286100EB800109EB810071
:1050A000211DFFF711F8E06A2968C96A8842E3D335
:1050B000C5F81C80E0E70CB1FEF75AFEAC694CB1B4
:1050C0004FEA0806FFF7A2FE00B1EE61641EF9D1B7
:1050D0000020A861E86938B108490127380708604D
:1050E000BFF34F8FBFF36F8FFFF71AF83846BDE855
:1050F000F0870000180000205C08002004ED00E0AC
:1051000010B586B0FEF7AAFB114C2068B8B100209C
:105110000390049005AA04A903A8FEF7A3FFDDE904
:10512000032102208DE8070000230AA10B48059AFD
:10513000FFF72DFE606010B106B0012010BD5020B9
:1051400080F31188BFF34F8FBFF36F8FFEE700002E
:1051500054000020546D7220537663004D3E0008C9
:105160002DE9FF411E46134602000A9D4FF0000044
:1051700016D0144C2768002F0FD0CDE900130292EF
:10518000062917DAFFF72EFE02284FF000030FD092
:10519000002269462068FFF7DDFA04B0BDE8F0811F
:1051A000502080F31188BFF34F8FBFF36F8FFEE75E
:1051B0002A46EEE70023324669463846FFF77AFB77
:1051C000EBE70000540000202DED028B40F26D1043
:1051D000FFF75EF8294E2A4F2A4C2B4D9FED2B8A64
:1051E00040F20528307A032802D001281BD040E085
:1051F00025493889083100F6E44008812248B4F98D
:1052000000100830FBF726FB28800246B4F9021094
:10521000B0EE481AF1EE040AB3EE0E0A1C48FDF790
:105220008DFD688020E0B7F908000F2190FBF1F0B8
:10523000154900221C310881164815490C310068B7
:10524000FFF7E6FB10481C30FBF71EFAA880024669
:10525000B4F90210B0EE481AF1EE040AB3EE0E0AE9
:105260000B48FDF76BFDE8804042414600B2FBF77A
:105270007FFB0820FFF70CF8B4E700008C4C0020FF
:10528000964C00200401002048010020000000008E
:10529000984D002078010020DC520008000000003A
:1052A00000000000000000000000000000020000FC
:1052B00018000000000000000000000000061016AA
:1052C00000061016000000000000000001020304A8
:1052D0000607080900000000010203044C4544547D
:1052E00061736B000453000800000020B40100004B
:1052F0003006000834530008B40100203450000088
:10530000303400088132018210037924F41AAA0192
:1053100001BF223FC5803FE40C4B804018E1E39A77
:1053200001080B10CDCCCC3D17B7D138AD1214A964
:045330002C0000004D
:040000050800018965
:00000001FF
